:0400000007EF00F016
:0A0008007D82CEED0EF08AEF12F0BB
:10100000003738392F3435362A3132332D23303DED
:101010002B49204C6F766520796F752053616D6187
:101020000D0025690000000E416E000E426E000E9C
:10103000436E000E446E39503A10D8B422EF08F0D7
:1010400024EF08F09EEF0AF073EF0AF0AC98B89620
:10105000AC9420EE01F03950D9263A50DA22DECF96
:101060003BF0DDCF3CF03BC002F03CC003F0046A33
:10107000056A000E81EC10F002C014F003C015F0F8
:1010800004C016F005C017F0000E106E240E116E8D
:10109000F40E126E4A0E136E01EC0DF010C03DF00E
:1010A00011C03EF012C03FF013C040F0000E146EAD
:1010B000000E156E800E166E420E176E3DC010F0BB
:1010C0003EC011F03FC012F040C013F001EC0DF033
:1010D00010C029F011C02AF012C02BF013C02CF060
:1010E000000E2D6E000E2E6E800E2F6EBF0E306E17
:1010F000A1EC0AF029C041F02AC042F02BC043F015
:101100002CC044F041C002F042C003F043C004F0E0
:1011100044C005F05BEC11F00250AF6E41C002F02C
:1011200042C003F043C004F044C005F05BEC11F092
:1011300003C002F0036A0250B06EA0EF0AF0AC9850
:10114000B896AC8420EE01F03950D9263A50DA2214
:10115000DECF3BF0DDCF3CF03BC002F03CC003F003
:10116000046A056A000E81EC10F002C014F003C09E
:1011700015F004C016F005C017F0000E106E240E16
:10118000116EF40E126E4A0E136E01EC0DF010C0CB
:101190003DF011C03EF012C03FF013C040F0000E11
:1011A000146E000E156E800E166E410E176E3DC049
:1011B00010F03EC011F03FC012F040C013F001EC3F
:1011C0000DF010C029F011C02AF012C02BF013C08E
:1011D0002CF0000E2D6E000E2E6E800E2F6EBF0EA8
:1011E000306EA1EC0AF029C041F02AC042F02BC0B9
:1011F00043F02CC044F082EF08F0AC98B886AC9471
:1012000020EE01F03950D9263A50DA22DECF3BF0F9
:10121000DDCF3CF03BC002F03CC003F0046A056A3D
:10122000000E81EC10F002C014F003C015F004C0F1
:1012300016F005C017F0000E106E240E116EF40E9D
:10124000126E4A0E136E01EC0DF010C03DF011C08D
:101250003EF012C03FF013C040F0000E146E000EBE
:10126000156E800E166E410E176E3DC010F03EC01A
:1012700011F03FC012F040C013F001EC0DF010C0AF
:1012800029F011C02AF012C02BF013C02CF0000E70
:101290002D6E000E2E6E800E2F6EBF0E306EA1ECE6
:1012A0000AF029C041F02AC042F02BC043F02CC004
:1012B00044F082EF08F0AC98B886AC8420EE01F0E0
:1012C0003950D9263A50DA22DECF3BF0DDCF3CF060
:1012D0003BC002F03CC003F0046A056A000E81ECDA
:1012E00010F002C014F003C015F004C016F005C0E1
:1012F00017F0000E106E240E116EF40E126E4A0ED0
:10130000136E01EC0DF010C03DF011C03EF012C0A4
:101310003FF013C040F0000E146E000E156E800EEC
:10132000166E400E176E3DC010F03EC011F03FC06B
:1013300012F040C013F001EC0DF010C029F011C004
:101340002AF012C02BF013C02CF0000E2D6E000EF0
:101350002E6E800E2F6EBF0E306EA1EC0AF029C0EB
:1013600041F02AC042F02BC043F02CC044F082EF81
:1013700008F0AC88B89620EE01F03950D9263A50E2
:10138000DA22DECF3BF0DDCF3CF03BC002F03CC0C8
:1013900003F0046A056A000E81EC10F002C014F03C
:1013A00003C015F004C016F005C017F0000E106E53
:1013B000240E116EF40E126E4A0E136E01EC0DF037
:1013C00010C03DF011C03EF012C03FF013C040F01D
:1013D000000E146E000E156E800E166E400E176E07
:1013E0003DC010F03EC011F03FC012F040C013F0FD
:1013F00001EC0DF010C029F011C02AF012C02BF042
:1014000013C02CF0000E2D6E000E2E6E800E2F6E6F
:10141000BF0E306EA1EC0AF029C041F02AC042F0A4
:101420002BC043F02CC044F082EF08F0AC88B886A3
:1014300020EE01F03950D9263A50DA22DECF3BF0C7
:10144000DDCF3CF03BC002F03CC003F0046A056A0B
:10145000000E81EC10F002C014F003C015F004C0BF
:1014600016F005C017F0000E106E240E116EF40E6B
:10147000126E4A0E136E01EC0DF010C03DF011C05B
:101480003EF012C03FF013C040F0000E146E000E8C
:10149000156E800E166E400E176E3DC010F03EC0E9
:1014A00011F03FC012F040C013F001EC0DF010C07D
:1014B00029F011C02AF012C02BF013C02CF0000E3E
:1014C0002D6E000E2E6E800E2F6EBF0E306EA1ECB4
:1014D0000AF029C041F02AC042F02BC043F02CC0D2
:1014E00044F082EF08F020EE03F03950D9263A504C
:1014F000DA22DF503B6E3C6A3C50000AD8B483EFDE
:101500000AF0A0EF0AF03B50000AD8B426EF08F02A
:10151000010AD8B49FEF08F0030AD8B4FDEF08F031
:10152000010AD8B45BEF09F0070AD8B4B9EF09F0A3
:10153000010AD8B416EF0AF0A0EF0AF0A0EF0AF003
:1015400012002C50800B356E2C502C24376E2BAE95
:10155000ACEF0AF0AEEF0AF0AFEF0AF03780375089
:10156000D8B4B5EF0AF0B7EF0AF0CCEF0AF037289D
:10157000D8A4BDEF0AF0BFEF0AF0C7EF0AF0000EE3
:10158000296E000E2A6E000E2B6E000E2C6E2B8E16
:10159000000E2C6ED4EF0AF0000E296E000E2A6E9B
:1015A000000E2B6E000E2C6E3050800B366E3550B8
:1015B0003618D8B4DEEF0AF0E0EF0AF0E1EF0AF0F7
:1015C000358C30503024366E2FAEE9EF0AF0EBEF59
:1015D0000AF0ECEF0AF036803650D8B4F2EF0AF099
:1015E000F4EF0AF009EF0BF03628D8A4FAEF0AF06E
:1015F000FCEF0AF004EF0BF0000E2D6E000E2E6EC5
:10160000000E2F6E000E306E2F8E000E306E11EF1A
:101610000BF0000E2D6E000E2E6E000E2F6E000EC3
:10162000306E3750365CD8B018EF0BF01AEF0BF075
:1016300041EF0BF035AC1FEF0BF021EF0BF023EF78
:101640000BF0800E351A37C038F036C037F038C08E
:1016500036F029C038F02DC029F038C02DF02AC04E
:1016600038F02EC02AF038C02EF02BC038F02FC032
:101670002BF038C02FF02CC038F030C02CF038C020
:1016800030F0000E386E375036C031F0326A315EBD
:10169000000E325A32BE56EF0BF0325009E11A0EEC
:1016A000315CD8A056EF0BF058EF0BF08FEF0BF03A
:1016B00029502A102B102C10D8A461EF0BF064EFE6
:1016C0000BF0010E65EF0BF0000E386E000E296E68
:1016D000000E2A6E000E2B6E000E2C6E36C037F0F8
:1016E00098EF0BF038A077EF0BF079EF0BF07FEF6E
:1016F0000BF0D89038300109386E81EF0BF0D8909C
:10170000383229A086EF0BF088EF0BF089EF0BF051
:10171000388E2C342C322B322A322932372A36504A
:10172000375CD8A096EF0BF098EF0BF072EF0BF050
:1017300035BC9DEF0BF09FEF0BF0DFEF0BF0375058
:10174000D8A4A5EF0BF0A7EF0BF0B1EF0BF0000E54
:10175000296E000E2A6E000E2B6E000E2C6E00EF0E
:101760000DF02D5029262E502A222F502B2230509A
:101770002C222CA0BEEF0BF0C0EF0BF06CEF0CF0A6
:1017800038A0C5EF0BF0C7EF0BF0CDEF0BF0D89002
:1017900038300109386ECFEF0BF0D890383229A0DD
:1017A000D4EF0BF0D6EF0BF0D7EF0BF0388E2C34D4
:1017B0002C322B322A322932372A6CEF0CF02D5082
:1017C000295C2E502A582F502B582C50800A316EED
:1017D0003050800A3158D8B0F0EF0BF0F2EF0BF038
:1017E0001DEF0CF029502D5C316E2A502E58326EB0
:1017F0002B502F58336E2C503058346EFF0E31243E
:10180000296EFF0E32202A6EFF0E33202B6EFF0E44
:1018100034202C6E800E351A386C3850D8A413EF53
:101820000CF015EF0CF025EF0CF0010E2926000E40
:101830002A222B222C2225EF0CF02D50295E2E502F
:101840002A5A2F502B5A30502C5A29502A102B101C
:101850002C10D8A42EEF0CF030EF0CF065EF0CF04C
:101860003850D8A436EF0CF038EF0CF065EF0CF0E0
:10187000000E296E000E2A6E000E2B6E000E2C6ECE
:1018800000EF0DF0D89029362A362B362C3638AE9C
:101890004CEF0CF04EEF0CF04FEF0CF0298038A01D
:1018A00054EF0CF056EF0CF05AEF0CF0D8803836AD
:1018B0005CEF0CF0D89038363750D8B462EF0CF0AB
:1018C00064EF0CF065EF0CF037062BAE6AEF0CF00E
:1018D0006CEF0CF042EF0CF0000E366E38AE73EF8A
:1018E0000CF075EF0CF08DEF0CF038C031F07F0E7E
:1018F0003116D8B47EEF0CF080EF0CF084EF0CF0D2
:10190000010E366E8DEF0CF029A089EF0CF08BEFF5
:101910000CF08DEF0CF080EF0CF03650D8B493EF54
:101920000CF095EF0CF0C0EF0CF0010E2926000E24
:101930002A222B222C222CA0A0EF0CF0A2EF0CF0DC
:10194000C0EF0CF029C031F02AC032F02BC033F0C8
:101950002CC034F03434343233323232313231C08C
:1019600029F032C02AF033C02BF034C02CF03728D5
:10197000D8B4BDEF0CF0BFEF0CF0C0EF0CF0372A7D
:101980003728D8B4C6EF0CF0C8EF0CF0D0EF0CF04D
:101990003750D8A4CEEF0CF0D0EF0CF0E2EF0CF003
:1019A000000E296E000E2A6E000E2B6E000E2C6E9D
:1019B0003750D8A4DEEF0CF0E0EF0CF0E2EF0CF0C3
:1019C000000E356E37A0E7EF0CF0E9EF0CF0ECEF0E
:1019D0000CF02B8EEDEF0CF02B9ED89037302C6E48
:1019E00035AEF5EF0CF0F7EF0CF0F8EF0CF02C8EB5
:1019F00029C029F02AC02AF02BC02BF02CC02CF0D3
:101A000012001350800B206E13501324276E12AE59
:101A10000CEF0DF00EEF0DF00FEF0DF027802750BB
:101A2000D8B415EF0DF017EF0DF02CEF0DF02728BF
:101A3000D8A41DEF0DF01FEF0DF027EF0DF0000EF5
:101A4000106E000E116E000E126E000E136E128ECE
:101A5000000E136E34EF0DF0000E106E000E116EBE
:101A6000000E126E000E136E1750800B201A1750C6
:101A70001724286E16AE3FEF0DF041EF0DF042EF48
:101A80000DF028802850D8B448EF0DF04AEF0DF043
:101A90005FEF0DF02828D8A450EF0DF052EF0DF0B5
:101AA0005AEF0DF0000E146E000E156E000E166E3D
:101AB000000E176E168E000E176E67EF0DF0000EFB
:101AC000146E000E156E000E166E000E176E14507A
:101AD000151016101710D8A470EF0DF072EF0DF05E
:101AE0008AEF0DF0000E106E000E116E000E126ED9
:101AF000000E136E800E12127F0E1312205013125E
:101B000010C010F011C011F012C012F013C013F089
:101B1000CDEF0EF02750D8A490EF0DF092EF0DF01E
:101B20009CEF0DF0000E106E000E116E000E126E86
:101B3000000E136ECDEF0EF0285027C018F0196A72
:101B4000185E000E195A7F0E1824216E000E1920FF
:101B5000226E10C01CF011C01DF012C01EF013C088
:101B60001FF0000E106E000E116E000E126E000EB1
:101B7000136E000E236E000E246E000E256E000EF6
:101B8000266E000E286EFDEF0DF02850D8B4CBEF76
:101B90000DF0CDEF0DF0E4EF0DF0D8901C361D36B2
:101BA0001E361F36D890103611361236133626AE32
:101BB000DCEF0DF0DEEF0DF0DFEF0DF01080D890D0
:101BC000233624362536263614501C5C15501D58F5
:101BD00016501E5817501F58D8A0F1EF0DF0F3EF14
:101BE0000DF0FCEF0DF0268C14501C5E15501D5AA4
:101BF00016501E5A17501F5A282A190E286403EF30
:101C00000EF005EF0EF0C5EF0DF01C501D101E106C
:101C10001F10D8B40EEF0EF010EF0EF028EF0EF0FC
:101C2000238028EF0EF0D890103611361236133676
:101C300026AE1DEF0EF01FEF0EF020EF0EF010801D
:101C4000D89023362436253626362106D8A02206FB
:101C500012AE2DEF0EF02FEF0EF013EF0EF0000E80
:101C6000286E26AE36EF0EF038EF0EF05CEF0EF079
:101C7000FF0E2314186EFF0E2414196EFF0E251488
:101C80001A6E7F0E26141B6E185019101A101B1096
:101C9000D8B44DEF0EF04FEF0EF053EF0EF0010EF3
:101CA000286E5CEF0EF010A058EF0EF05AEF0EF019
:101CB0005CEF0EF04FEF0EF02850D8B462EF0EF04C
:101CC00064EF0EF088EF0EF0010E1026000E1122C8
:101CD0001222132213A06FEF0EF071EF0EF088EFB7
:101CE0000EF010C018F011C019F012C01AF013C095
:101CF0001BF01B341B321A321932183218C010F084
:101D000019C011F01AC012F01BC013F0214A222A88
:101D100022BE93EF0EF0225008E12128D8A093EFC5
:101D20000EF095EF0EF0A0EF0EF0000E226E21687F
:101D3000000E106E000E116E000E126E000E136E6D
:101D400022BEADEF0EF0225006E12104D8B0ABEF79
:101D50000EF0ADEF0EF0BBEF0EF0000E226E000E97
:101D6000216E000E106E000E116E000E126E000E2F
:101D7000136E000E206E21C027F027A0C2EF0EF0D8
:101D8000C4EF0EF0C7EF0EF0128EC8EF0EF0129EE9
:101D9000D8902730136E7EEF0DF012000600F2A8E7
:101DA000D4EF0EF0D6EF0EF0DFEF0EF0F2A2DBEF85
:101DB0000EF0DDEF0EF0DFEF0EF089EC13F0F0A681
:101DC000E4EF0EF0E6EF0EF0EFEF0EF0F0A0EBEF29
:101DD0000EF0EDEF0EF0EFEF0EF087EC13F0F0A841
:101DE000F4EF0EF0F6EF0EF0FFEF0EF0F0A2FBEFC7
:101DF0000EF0FDEF0EF0FFEF0EF085EC13F0F2A603
:101E000004EF0FF006EF0FF021EF0FF0F2A00BEF51
:101E10000FF00DEF0FF021EF0FF081A812EF0FF090
:101E200014EF0FF021EF0FF07C04D8A41AEF0FF09D
:101E30001CEF0FF021EF0FF0000E7C6E000E59EC3E
:101E400013F0F2A626EF0FF028EF0FF043EF0FF09C
:101E5000F2A02DEF0FF02FEF0FF043EF0FF081B84E
:101E600034EF0FF036EF0FF043EF0FF07C50D8A4B3
:101E70003CEF0FF03EEF0FF043EF0FF0010E7C6EE2
:101E8000010E59EC13F0F2A648EF0FF04AEF0FF0F5
:101E900065EF0FF0F2A04FEF0FF051EF0FF065EF8D
:101EA0000FF081AA56EF0FF058EF0FF065EF0FF02B
:101EB0007B04D8A45EEF0FF060EF0FF065EF0FF03A
:101EC000000E7B6E000E4CEC13F0F2A66AEF0FF0E2
:101ED0006CEF0FF087EF0FF0F2A071EF0FF073EFE0
:101EE0000FF087EF0FF081BA78EF0FF07AEF0FF075
:101EF00087EF0FF07B50D8A480EF0FF082EF0FF048
:101F000087EF0FF0010E7B6E010E4CEC13F0F2A682
:101F10008CEF0FF08EEF0FF0A9EF0FF0F2A093EF20
:101F20000FF095EF0FF0A9EF0FF081AC9AEF0FF0E3
:101F30009CEF0FF0A9EF0FF07A04D8A4A2EF0FF0F6
:101F4000A4EF0FF0A9EF0FF0000E7A6E000E3FEC39
:101F500013F0F2A6AEEF0FF0B0EF0FF0CBEF0FF0F3
:101F6000F2A0B5EF0FF0B7EF0FF0CBEF0FF081BCA1
:101F7000BCEF0FF0BEEF0FF0CBEF0FF07A50D8A40C
:101F8000C4EF0FF0C6EF0FF0CBEF0FF0010E7A6E3B
:101F9000010E3FEC13F0F2A6D0EF0FF0D2EF0FF0EE
:101FA000EDEF0FF0F2A0D7EF0FF0D9EF0FF0EDEF5C
:101FB0000FF081AEDEEF0FF0E0EF0FF0EDEF0FF07E
:101FC0007904D8A4E6EF0FF0E8EF0FF0EDEF0FF093
:101FD000000E796E000E32EC13F0F2A6F2EF0FF065
:101FE000F4EF0FF00FEF10F0F2A0F9EF0FF0FBEFAE
:101FF0000FF00FEF10F081BE00EF10F002EF10F0C5
:102000000FEF10F07950D8A408EF10F00AEF10F09D
:102010000FEF10F0010E796E010E32EC13F09DAC53
:1020200014EF10F016EF10F01FEF10F09EAC1BEF46
:1020300010F01DEF10F01FEF10F08FEC13F0F2AA6C
:1020400024EF10F026EF10F02FEF10F0F2A42BEF9A
:1020500010F02DEF10F02FEF10F083EC13F09DA097
:1020600034EF10F036EF10F03FEF10F09EA03BEF92
:1020700010F03DEF10F03FEF10F077EC13F09DA261
:1020800044EF10F046EF10F04FEF10F09EA24BEF30
:1020900010F04DEF10F04FEF10F07DEC13F0A0A218
:1020A00054EF10F056EF10F05FEF10F0A1A25BEFCD
:1020B00010F05DEF10F05FEF10F071EC13F09DA4E5
:1020C00064EF10F066EF10F06FEF10F09EA46BEF6E
:1020D00010F06DEF10F06FEF10F08DEC13F0A0A08A
:1020E00074EF10F076EF10F07FEF10F0A1A07BEF0F
:1020F00010F07DEF10F07FEF10F08BEC13F07D927D
:1021000011000A6E0A50D8B488EF10F08AEF10F070
:10211000ACEF10F005BE91EF10F08FEF10F0ACEFC8
:1021200010F002C006F003C007F004C008F005C0BC
:1021300009F0061E071E081E091E062A000E0722A9
:102140000822092206C00CF007C00DF008C00EF0EE
:1021500009C00FF0B4EF10F002C00CF003C00DF096
:1021600004C00EF005C00FF002500310041005105B
:10217000D8A4BDEF10F0BFEF10F0C9EF10F0000EC3
:10218000026E000E036E000E046E000E056E5AEF16
:1021900011F0960E0B6ED3EF10F00B2AD8900F3281
:1021A0000E320D320C32000E0C14066E000E0D14A1
:1021B000076E000E0E14086EFE0E0F14096E065008
:1021C000071008100910D8A4E8EF10F0EAEF10F09B
:1021D000CDEF10F0F8EF10F00B2A010E0C26000ED8
:1021E0000D220E220F22D8900F320E320D320C32F9
:1021F000000E0C14066E000E0D14076E000E0E1469
:10220000086EFF0E0F14096E065007100810091013
:10221000D8A40DEF11F00FEF11F0ECEF10F017EF65
:1022200011F00B06D8900C360D360E360F360EBE5A
:102230001CEF11F01EEF11F026EF11F0020E0B60F3
:1022400024EF11F026EF11F011EF11F00BB02BEF8E
:1022500011F02DEF11F02EEF11F00E9ED8900B32F1
:102260000BC006F0076A086A096A06C009F0086A26
:10227000076A066A06500C1207500D1208500E121B
:1022800009500F120A50D8B448EF11F04AEF11F07C
:1022900052EF11F005BE51EF11F04FEF11F052EF78
:1022A00011F00F8E0CC002F00DC003F00EC004F050
:1022B0000FC005F01200043405340B6E0B50D8A487
:1022C00064EF11F066EF11F070EF11F0000E026E86
:1022D000000E036E000E046E000E056EDDEF11F0B1
:1022E00002C006F003C007F004C008F005C009F002
:1022F000200E80EF11F0D8900932083207320632F2
:10230000E82E7BEF11F006500A6E048EFF0E0216C7
:10231000FF0E0316FF0E0416000E0516960E0B5E3A
:102320000BBE97EF11F095EF11F0ADEF11F00B50E0
:10233000800A970FD8B09FEF11F0A1EF11F0A3EF33
:1023400011F066EF11F0D8900532043203320232F8
:102350000B3EA3EF11F0C5EF11F01F0E0B64B3EFAE
:1023600011F0B5EF11F0BDEF11F066EF11F0D8905C
:1023700002360336043605360B060B50D8A4C3EFDD
:1023800011F0C5EF11F0B7EF11F00A50D8B4CBEF50
:1023900011F0CDEF11F0D5EF11F0051E041E031E54
:1023A000026C000E03220422052202C002F003C0C8
:1023B00003F004C004F005C005F012000250031041
:1023C000D8B4E5EF11F0E7EF11F03CEF12F09D9873
:1023D00002C0D9FF03C0DAFFDFA0F1EF11F0F3EF85
:1023E00011F0F6EF11F0AC8A04EF12F002C0D9FF41
:1023F00003C0DAFFDFB0FFEF11F001EF12F004EFDE
:1024000012F0AC9A04EF12F002C0D9FF03C0DAFF59
:10241000DFA20DEF12F00FEF12F012EF12F0AC8C02
:1024200020EF12F002C0D9FF03C0DAFFDFB21BEFCA
:1024300012F01DEF12F020EF12F0AC9C20EF12F022
:1024400002C0D9FF03C0DAFFDFA429EF12F02BEF9F
:1024500012F02EEF12F09D883CEF12F002C0D9FF6F
:1024600003C0DAFFDFB437EF12F039EF12F03CEFC0
:1024700012F09D983CEF12F0120045504610D8B46F
:1024800044EF12F046EF12F089EF12F0AB8E948C0D
:10249000948E45C039F046C03AF013EC08F020EEB7
:1024A00004F04550D9264650DA22DE50DE10D8B46A
:1024B0005CEF12F05EEF12F06CEF12F020EE04F021
:1024C0004550D9264650DA22DECF02F0DDCF03F0A8
:1024D000DEEC11F06CEF12F020EE06F04550D9263C
:1024E0004650DA22DE50DE10D8B479EF12F07BEFDE
:1024F00012F089EF12F020EE06F04550D926465032
:10250000DA22DECF02F0DDCF03F0B5EC12F089EF76
:1025100012F012002A0EF66E260EF76E000EF86EFE
:1025200000EE80F010EE39F00900F5CFEEFFE55037
:10253000E150FAE1020EF66E270EF76E000EF86E0D
:1025400000EE79F010EE04F00900F5CFEEFFE55053
:10255000E150FAE100EE49F0300EEE6AE806FDE1E6
:102560007D907D920001D9EF12F002500310D8B493
:10257000BCEF12F0BEEF12F0D8EF12F002C0D9FF9C
:1025800003C0DAFFDFA4C7EF12F0C9EF12F0CBEF00
:1025900012F0D8EF12F002C0D9FF03C0DAFFDFB4A7
:1025A000D4EF12F0D6EF12F0D8EF12F0D8EF12F00D
:1025B0001200A80E456E000E466E3DEC12F0110E94
:1025C000036E100E046E100E056EF8EC12F00B0E7A
:1025D0000001BA6F260EB96F5D0EE82EFED7B92F37
:1025E000FCD7BA2FFAD700D0DFEF12F007EF00F0D8
:1025F00005C008F003C006F004C007F00BEF13F0AD
:1026000006C0F6FF07C0F7FFF86A0800F55066EC51
:1026100013F0064A072A08060828D8A412EF13F078
:1026200014EF13F000EF13F01200800F810F820FF0
:10263000830F840F890F8A0F8B0F8C0F8D0F920FD2
:10264000930F940F950F960F323A030B131B232B06
:10265000333B00802501B6000000020A121A222A2C
:0326600001000076
:10266400016EF2900150D8A43AEF13F03CEF13F04E
:102674003EEF13F03EEF13F01200016EF2900150A2
:10268400D8A447EF13F049EF13F04BEF13F04BEFDF
:1026940013F01200016EF2900150D8A454EF13F01D
:1026A40056EF13F058EF13F058EF13F01200016EC9
:1026B400F2900150D8A461EF13F063EF13F065EFCB
:1026C40013F065EF13F01200026EACA26CEF13F07E
:1026D4006EEF13F067EF13F002C0ADFF1200A1928A
:1026E4004A50B36E49C0B2FF12009E905050CF6E54
:1026F4004FC0CEFF12009E9271C0CCFF12000101A8
:102704000101F2941200F0921200F0901200F29281
:0E2714001200A19012009E9412009E9C1200D2
:020000040020DA
:08000000FFFFFFFFFFFFFFFF00
:020000040030CA
:0E000000FF02091EFF8181FF0FC00FE00F40BD
:00000001FF
