:0400000007EF00F016
:0A0008007282FDED10F045EF1EF0CE
:10100000003738392F3435362A3132332D23303DED
:0F1010002B4672657175656E6379002569000066
:101020000001E951EA11D8B418EF08F01AEF08F0FE
:10103000BAEF0AF020EE06F0E951D926EA51DA2299
:10104000DF50D8A426EF08F028EF08F02CEF08F0C6
:10105000F00EBD163EEF08F020EE06F0E951D9265D
:10106000EA51DA22DE04D8A438EF08F03AEF08F0AB
:101070003EEF08F0F00EBA163EEF08F020EE07F053
:10108000E951D926EA51DA22DF50D8A44AEF08F014
:101090004CEF08F0F8EF08F020EE06F0E951D92601
:1010A000EA51DA22DF50D8A458EF08F05AEF08F0DE
:1010B000A3EF08F07CEF08F0BD50F00B0209BD6E05
:1010C0007FEF0AF0BD50F00B0809BD6E7FEF0AF00C
:1010D000BD50F00B0909BD6E7FEF0AF0BD50F00B5B
:1010E0000A09BD6E7FEF0AF0BD50F00B0B09BD6E13
:1010F0007FEF0AF07FEF0AF020EE08F0E951D926E1
:10110000EA51DA22DF50EB6FEC6BEC51000AD8B4F5
:101110008CEF08F07AEF08F0EB51020AD8B45CEFDC
:1011200008F00A0AD8B462EF08F0010AD8B468EFF0
:1011300008F0030AD8B46EEF08F0010AD8B474EFCF
:1011400008F07AEF08F020EE06F0E951D926EA51CE
:10115000DA22DE04D8A4AFEF08F0B1EF08F07AEF9E
:1011600008F0D1EF08F0BA50F00B0209BA6E7FEF29
:101170000AF0BA50F00B0809BA6E7FEF0AF0BA50C5
:10118000F00B0909BA6E7FEF0AF0BA50F00B0A09AA
:10119000BA6E7FEF0AF0BA50F00B0B09BA6E7FEF10
:1011A0000AF020EE08F0E951D926EA51DA22DF50A0
:1011B000EB6FEC6BEC51000AD8B4E1EF08F07AEF7A
:1011C00008F0EB51020AD8B4B3EF08F00A0AD8B419
:1011D000B9EF08F0010AD8B4BFEF08F0030AD8B499
:1011E000C5EF08F0010AD8B4CBEF08F07AEF08F0A9
:1011F00020EE07F0E951D926EA51DA22DE04D8A41C
:1012000004EF09F006EF09F09CEF09F020EE06F07C
:10121000E951D926EA51DA22DF50D8A412EF09F0B9
:1012200014EF09F051EF09F02EEF09F0BD50F00B6B
:101230000409BD6E7FEF0AF0BD50F00B0509BD6ECD
:101240007FEF0AF0BD50F00B0609BD6E7FEF0AF08C
:10125000BD50F00B0709BD6E7FEF0AF020EE08F0DD
:10126000E951D926EA51DA22DF50EB6FEC6BEC51F1
:10127000000AD8B43EEF09F07AEF08F0EB51040A07
:10128000D8B416EF09F0010AD8B41CEF09F0030A2C
:10129000D8B422EF09F0010AD8B428EF09F07AEFA8
:1012A00008F020EE06F0E951D926EA51DA22DE04F0
:1012B000D8A45DEF09F05FEF09F07AEF08F079EF5D
:1012C00009F0BA50F00B0409BA6E7FEF0AF0BA5079
:1012D000F00B0509BA6E7FEF0AF0BA50F00B060961
:1012E000BA6E7FEF0AF0BA50F00B0709BA6E7FEFC3
:1012F0000AF020EE08F0E951D926EA51DA22DF504F
:10130000EB6FEC6BEC51000AD8B489EF09F07AEF7F
:1013100008F0EB51040AD8B461EF09F0010AD8B41F
:1013200067EF09F0030AD8B46DEF09F0010AD8B4E9
:1013300073EF09F07AEF08F020EE07F0E951D926B3
:10134000EA51DA22020EDE18D8A4A9EF09F0ABEFB9
:1013500009F07AEF08F020EE06F0E951D926EA51BB
:10136000DA22DF50D8A4B7EF09F0B9EF09F0BFEFE8
:1013700009F0BD50F00B0C09BD6ED3EF09F020EE63
:1013800006F0E951D926EA51DA22DE04D8A4CBEFDF
:1013900009F0CDEF09F0D3EF09F0BA50F00B0C09CA
:1013A000BA6ED3EF09F0000E206E000E216E800E93
:1013B000226E400E236E20EE09F0E951D926EA5143
:1013C000DA22DECF0EF0DECF0FF0DECF10F0DECF70
:1013D00011F0000E0FEC15F00EC01CF00FC01DF048
:1013E00010C01EF011C01FF01BEC0DF01CC0EDF082
:1013F0001DC0EEF01EC0EFF01FC0F0F0000120EEA7
:101400000DF0E951D926EA51DA22DF50030BEB6FD8
:10141000EB510E6E0F6A106A116A010E0FEC15F097
:101420000EC020F00FC021F010C022F011C023F038
:10143000EDC01CF0EEC01DF0EFC01EF0F0C01FF0BC
:101440001BEC0DF01CC0F1F01DC0F2F01EC0F3F05B
:101450001FC0F4F0000E526E000E536E800E546EDC
:10146000BF0E556E000120EE0DF0E951D926EA516C
:10147000DA22DF30E8320F0BEB6FEB510E6E0F6AA2
:10148000106A116A010E0FEC15F00EC020F00FC0AB
:1014900021F010C022F011C023F0F1C01CF0F2C006
:1014A0001DF0F3C01EF0F4C01FF01BEC0DF01CC0CB
:1014B00039F01DC03AF01EC03BF01FC03CF0000EDA
:1014C000356E240E366E740E376E4A0E386E30EC62
:1014D0000FF035C04EF036C04FF037C050F038C076
:1014E00051F0BBEC0AF04EC05EF04FC05FF050C050
:1014F00060F051C061F0ABEC1AF05E50CB6E0001B1
:1015000020EE06F0E951D926EA51DA22DF50D8A4BC
:101510008CEF0AF08EEF0AF09AEF0AF09D849E9409
:10152000E9C0D9FFEAC0DAFFDECF90F0DDCF91F05D
:10153000B6EF0AF020EE06F0E951D926EA51DA2298
:10154000DE04D8A4A6EF0AF0A8EF0AF0B6EF0AF07E
:10155000A080A19020EE02F0E951D926EA51DA22CA
:10156000DECF8EF0DDCF8FF0B6EF0AF0F28EF28C88
:10157000BAEF0AF012005150800B5A6E51505124AC
:101580005C6E50AEC6EF0AF0C8EF0AF0C9EF0AF081
:101590005C805C50D8B4CFEF0AF0D1EF0AF0E6EFF0
:1015A0000AF05C28D8A4D7EF0AF0D9EF0AF0E1EFEF
:1015B0000AF0000E4E6E000E4F6E000E506E000EC2
:1015C000516E508E000E516EEEEF0AF0000E4E6E10
:1015D000000E4F6E000E506E000E516E5550800B77
:1015E0005B6E5A505B18D8B4F8EF0AF0FAEF0AF0C5
:1015F000FBEF0AF05A8C555055245B6E54AE03EF46
:101600000BF005EF0BF006EF0BF05B805B50D8B4EE
:101610000CEF0BF00EEF0BF023EF0BF05B28D8A4D0
:1016200014EF0BF016EF0BF01EEF0BF0000E526EE6
:10163000000E536E000E546E000E556E548E000E4A
:10164000556E2BEF0BF0000E526E000E536E000E17
:10165000546E000E556E5C505B5CD8B032EF0BF0F0
:1016600034EF0BF05BEF0BF05AAC39EF0BF03BEFC4
:101670000BF03DEF0BF0800E5A1A5CC05DF05BC0C2
:101680005CF05DC05BF04EC05DF052C04EF05DC0DE
:1016900052F04FC05DF053C04FF05DC053F050C0EA
:1016A0005DF054C050F05DC054F051C05DF055C0C5
:1016B00051F05DC055F0000E5D6E5C505BC056F0A1
:1016C000576A565E000E575A57BE70EF0BF05750D0
:1016D00009E11A0E565CD8A070EF0BF072EF0BF018
:1016E000A9EF0BF04E504F1050105110D8A47BEFC3
:1016F0000BF07EEF0BF0010E7FEF0BF0000E5D6E36
:10170000000E4E6E000E4F6E000E506E000E516EAB
:101710005BC05CF0B2EF0BF05DA091EF0BF093EFCC
:101720000BF099EF0BF0D8905D3001095D6E9BEFE7
:101730000BF0D8905D324EA0A0EF0BF0A2EF0BF0B3
:10174000A3EF0BF05D8E5134513250324F324E3296
:101750005C2A5B505C5CD8A0B0EF0BF0B2EF0BF0F2
:101760008CEF0BF05ABCB7EF0BF0B9EF0BF0F9EFC1
:101770000BF05C50D8A4BFEF0BF0C1EF0BF0CBEF38
:101780000BF0000E4E6E000E4F6E000E506E000EEF
:10179000516E1AEF0DF052504E2653504F225450B6
:1017A00050225550512251A0D8EF0BF0DAEF0BF038
:1017B00086EF0CF05DA0DFEF0BF0E1EF0BF0E7EF51
:1017C0000BF0D8905D3001095D6EE9EF0BF0D89019
:1017D0005D324EA0EEEF0BF0F0EF0BF0F1EF0BF0FF
:1017E0005D8E5134513250324F324E325C2A86EF88
:1017F0000CF052504E5C53504F585450505851506A
:10180000800A566E5550800A5658D8B00AEF0CF030
:101810000CEF0CF037EF0CF04E50525C566E4F5000
:101820005358576E50505458586E51505558596E21
:10183000FF0E56244E6EFF0E57204F6EFF0E58209F
:10184000506EFF0E5920516E800E5A1A5D6C5D501D
:10185000D8A42DEF0CF02FEF0CF03FEF0CF0010EA1
:101860004E26000E4F22502251223FEF0CF05250D4
:101870004E5E53504F5A5450505A5550515A4E5034
:101880004F1050105110D8A448EF0CF04AEF0CF054
:101890007FEF0CF05D50D8A450EF0CF052EF0CF03D
:1018A0007FEF0CF0000E4E6E000E4F6E000E506E6D
:1018B000000E516E1AEF0DF0D8904E364F3650365E
:1018C00051365DAE66EF0CF068EF0CF069EF0CF08E
:1018D0004E805DA06EEF0CF070EF0CF074EF0CF02A
:1018E000D8805D3676EF0CF0D8905D365C50D8B479
:1018F0007CEF0CF07EEF0CF07FEF0CF05C0650AE4E
:1019000084EF0CF086EF0CF05CEF0CF0000E5B6ED9
:101910005DAE8DEF0CF08FEF0CF0A7EF0CF05DC01B
:1019200056F07F0E5616D8B498EF0CF09AEF0CF0E4
:101930009EEF0CF0010E5B6EA7EF0CF04EA0A3EF34
:101940000CF0A5EF0CF0A7EF0CF09AEF0CF05B5049
:10195000D8B4ADEF0CF0AFEF0CF0DAEF0CF0010EF5
:101960004E26000E4F225022512251A0BAEF0CF009
:10197000BCEF0CF0DAEF0CF04EC056F04FC057F051
:1019800050C058F051C059F059345932583257327A
:10199000563256C04EF057C04FF058C050F059C0A4
:1019A00051F05C28D8B4D7EF0CF0D9EF0CF0DAEF97
:1019B0000CF05C2A5C28D8B4E0EF0CF0E2EF0CF0FD
:1019C000EAEF0CF05C50D8A4E8EF0CF0EAEF0CF072
:1019D000FCEF0CF0000E4E6E000E4F6E000E506EBF
:1019E000000E516E5C50D8A4F8EF0CF0FAEF0CF03A
:1019F000FCEF0CF0000E5A6E5CA001EF0DF003EF4F
:101A00000DF006EF0DF0508E07EF0DF0509ED890C0
:101A10005C30516E5AAE0FEF0DF011EF0DF012EF7A
:101A20000DF0518E4EC04EF04FC04FF050C050F0F0
:101A300051C051F012001F50800B286E1F501F2400
:101A40002E6E1EAE26EF0DF028EF0DF029EF0DF0F3
:101A50002E802E50D8B42FEF0DF031EF0DF044EF63
:101A60000DF02E28D8A437EF0DF039EF0DF041EF2F
:101A70000DF0000E1C6E000E1D6E000E1E6E000E90
:101A80001F6E1E8E4CEF0DF0000E1C6E000E1D6EB4
:101A9000000E1E6E000E1F6E2350800B281A23505E
:101AA0002324296E22AE57EF0DF059EF0DF05AEFB7
:101AB0000DF029802950D8B460EF0DF062EF0DF0E1
:101AC00075EF0DF02928D8A468EF0DF06AEF0DF03E
:101AD00072EF0DF0000E206E000E216E000E226ED1
:101AE000000E236E228E7DEF0DF0000E206E000E94
:101AF000216E000E226E000E236E2950D8B483EFA3
:101B00000DF085EF0DF08DEF0DF02E50D8A48BEF7A
:101B10000DF08DEF0DF097EF0DF0000E1C6E000E26
:101B20001D6E000E1E6E000E1F6E2FEF0FF0225066
:101B30001C02F3CF33F0F4CF34F033502A6E2B6A0B
:101B40002C6A2D6A34502F6E306A316A326A215005
:101B50001D02F3CF33F0F4CF34F033502A26000EB9
:101B60002B222C222D2234502F26000E30223122FF
:101B7000322220501E02F3CF33F0F4CF34F0335032
:101B80002A26000E2B222C222D2234502F26000E26
:101B90003022312232222CC02DF02BC02CF02AC052
:101BA0002BF02A6A20501D02F3CF33F0F4CF34F02B
:101BB00033502A2634502B22000E2C22000E2D22C8
:101BC00021501C02F3CF33F0F4CF34F033502A26E7
:101BD00034502B22000E2C22000E2D222CC02DF072
:101BE0002BC02CF02AC02BF02A6A20501C02F3CF05
:101BF00033F0F4CF34F033502A2634502B22000E29
:101C00002C22000E2D2222501D02F3CF33F0F4CFF0
:101C100034F033502F2634503022000E3122000E83
:101C2000322221501E02F3CF33F0F4CF34F0335080
:101C30002F2634503022000E3122000E3222225044
:101C40001E02F3CF33F0F4CF34F03350246E34500F
:101C5000256E266A276A26C027F025C026F024C0F4
:101C600025F0246A24502F26255030222650312278
:101C7000275032222AC024F02BC025F02CC026F099
:101C80002DC027F0190E4AEF0EF0D89027322632D9
:101C900025322432E82E45EF0EF024502F26255011
:101CA000302226503122275032222CC02DF02BC05A
:101CB0002CF02AC02BF02A6A29502EC024F0256A65
:101CC0002426000E2522820E2424336EFF0E2520AA
:101CD000346E80EF0EF0D8902F36303631363236F3
:101CE0002DAE75EF0EF077EF0EF078EF0EF02F803F
:101CF000D8902A362B362C362D363306D8A034060B
:101D000031AE85EF0EF087EF0EF06BEF0EF0000EA8
:101D1000296E2DAE8EEF0EF090EF0EF0B4EF0EF0B8
:101D2000FF0E2A14246EFF0E2B14256EFF0E2C14AA
:101D3000266E7F0E2D14276E245025102610271096
:101D4000D8B4A5EF0EF0A7EF0EF0ABEF0EF0010E3A
:101D5000296EB4EF0EF02FA0B0EF0EF0B2EF0EF040
:101D6000B4EF0EF0A7EF0EF02950D8B4BAEF0EF092
:101D7000BCEF0EF0E0EF0EF0010E2F26000E302229
:101D80003122322232A0C7EF0EF0C9EF0EF0E0EFA1
:101D90000EF02FC024F030C025F031C026F032C044
:101DA00027F02734273226322532243224C02FF060
:101DB00025C030F026C031F027C032F0334A342A33
:101DC00034BEEBEF0EF0345008E13328D8A0EBEF2F
:101DD0000EF0EDEF0EF0F7EF0EF0000E2F6E000E8E
:101DE000306E800E316E7F0E326E25EF0FF034BEF6
:101DF00004EF0FF0345006E13304D8B002EF0FF0D7
:101E000004EF0FF010EF0FF0000E2F6E000E306E8B
:101E1000000E316E000E326E000E286E25EF0FF0B0
:101E200033C02EF0FF0E2F16FF0E30167F0E311628
:101E3000000E32162EA01FEF0FF021EF0FF022EF51
:101E40000FF0318ED8902E30326E285032122FC0C3
:101E50001CF030C01DF031C01EF032C01FF0120067
:101E60003850800B456E385038244C6E37AE3BEFFF
:101E70000FF03DEF0FF03EEF0FF04C804C50D8B418
:101E800044EF0FF046EF0FF05BEF0FF04C28D8A4B3
:101E90004CEF0FF04EEF0FF056EF0FF0000E356ED7
:101EA000000E366E000E376E000E386E378E000E46
:101EB000386E63EF0FF0000E356E000E366E000EBA
:101EC000376E000E386E3C50800B451A3C503C2457
:101ED0004D6E3BAE6EEF0FF070EF0FF071EF0FF045
:101EE0004D804D50D8B477EF0FF079EF0FF08EEFB3
:101EF0000FF04D28D8A47FEF0FF081EF0FF089EF9E
:101F00000FF0000E396E000E3A6E000E3B6E000EA2
:101F10003C6E3B8E000E3C6E96EF0FF0000E396E5D
:101F2000000E3A6E000E3B6E000E3C6E39503A10B9
:101F30003B103C10D8A49FEF0FF0A1EF0FF0B9EFCA
:101F40000FF0000E356E000E366E000E376E000E6E
:101F5000386E800E37127F0E38124550381235C059
:101F600035F036C036F037C037F038C038F0FCEF07
:101F700010F04C50D8A4BFEF0FF0C1EF0FF0CBEF33
:101F80000FF0000E356E000E366E000E376E000E2E
:101F9000386EFCEF10F04D504CC03DF03E6A3D5E97
:101FA000000E3E5A7F0E3D24466E000E3E20476EC8
:101FB00035C041F036C042F037C043F038C044F07D
:101FC000000E356E000E366E000E376E000E386E47
:101FD000000E486E000E496E000E4A6E000E4B6EEB
:101FE000000E4D6E2CEF10F04D50D8B4FAEF0FF0FC
:101FF000FCEF0FF013EF10F0D89041364236433625
:102000004436D89035363636373638364BAE0BEF49
:1020100010F00DEF10F00EEF10F03580D89048362C
:1020200049364A364B363950415C3A5042583B505B
:1020300043583C504458D8A020EF10F022EF10F045
:102040002BEF10F04B8C3950415E3A50425A3B50C6
:10205000435A3C50445A4D2A190E4D6432EF10F049
:1020600034EF10F0F4EF0FF04150421043104410E1
:10207000D8B43DEF10F03FEF10F057EF10F048806C
:1020800057EF10F0D89035363636373638364BAEF7
:102090004CEF10F04EEF10F04FEF10F03580D8906D
:1020A000483649364A364B364606D8A0470637AE3C
:1020B0005CEF10F05EEF10F042EF10F0000E4D6E8E
:1020C0004BAE65EF10F067EF10F08BEF10F0FF0EE6
:1020D00048143D6EFF0E49143E6EFF0E4A143F6ECB
:1020E0007F0E4B14406E3D503E103F104010D8B450
:1020F0007CEF10F07EEF10F082EF10F0010E4D6ECD
:102100008BEF10F035A087EF10F089EF10F08BEF18
:1021100010F07EEF10F04D50D8B491EF10F093EF27
:1021200010F0B7EF10F0010E3526000E36223722E0
:10213000382238A09EEF10F0A0EF10F0B7EF10F0AB
:1021400035C03DF036C03EF037C03FF038C040F0FB
:10215000403440323F323E323D323DC035F03EC029
:1021600036F03FC037F040C038F0464A472A47BEF5
:10217000C2EF10F0475008E14628D8A0C2EF10F097
:10218000C4EF10F0CFEF10F0000E476E4668000E5F
:10219000356E000E366E000E376E000E386E47BE7E
:1021A000DCEF10F0475006E14604D8B0DAEF10F04B
:1021B000DCEF10F0EAEF10F0000E476E000E466EF6
:1021C000000E356E000E366E000E376E000E386E45
:1021D000000E456E46C04CF04CA0F1EF10F0F3EF4E
:1021E00010F0F6EF10F0378EF7EF10F0379ED89022
:1021F0004C30386EADEF0FF012000600FACF0AF047
:10220000FBCF0BF0D9CF0CF0DACF0DF0F2A80BEF2B
:1022100011F00DEF11F016EF11F0F2A212EF11F024
:1022200014EF11F016EF11F018EC22F0F0A61BEFEE
:1022300011F01DEF11F026EF11F0F0A022EF11F0D8
:1022400024EF11F026EF11F016EC22F0F0A82BEF9E
:1022500011F02DEF11F036EF11F0F0A232EF11F086
:1022600034EF11F036EF11F014EC22F0F2A63BEF50
:1022700011F03DEF11F058EF11F0F2A042EF11F024
:1022800044EF11F058EF11F081A849EF11F04BEF36
:1022900011F058EF11F07104D8A451EF11F053EF81
:1022A00011F058EF11F0000E716E000EDBEC21F012
:1022B000F2A65DEF11F05FEF11F07AEF11F0F2A0EE
:1022C00064EF11F066EF11F07AEF11F081B86BEF67
:1022D00011F06DEF11F07AEF11F07150D8A473EF97
:1022E00011F075EF11F07AEF11F0010E716E010E21
:1022F000DBEC21F0F2A67FEF11F081EF11F09CEF03
:1023000011F0F2A086EF11F088EF11F09CEF11F0C0
:1023100081AA8DEF11F08FEF11F09CEF11F0700496
:10232000D8A495EF11F097EF11F09CEF11F0000E8B
:10233000706E000ECEEC21F0F2A6A1EF11F0A3EF2B
:1023400011F0BEEF11F0F2A0A8EF11F0AAEF11F01A
:10235000BEEF11F081BAAFEF11F0B1EF11F0BEEFA7
:1023600011F07050D8A4B7EF11F0B9EF11F0BEEF33
:1023700011F0010E706E010ECEEC21F0F2A6C3EF4B
:1023800011F0C5EF11F0E0EF11F0F2A0CAEF11F07B
:10239000CCEF11F0E0EF11F081ACD1EF11F0D3EF01
:1023A00011F0E0EF11F06F04D8A4D9EF11F0DBEFDA
:1023B00011F0E0EF11F0000E6F6E000EC1EC21F095
:1023C000F2A6E5EF11F0E7EF11F002EF12F0F2A044
:1023D000ECEF11F0EEEF11F002EF12F081BCF3EF31
:1023E00011F0F5EF11F002EF12F06F50D8A4FBEFEF
:1023F00011F0FDEF11F002EF12F0010E6F6E010E01
:10240000C1EC21F0F2A607EF12F009EF12F024EF71
:1024100012F0F2A00EEF12F010EF12F024EF12F013
:1024200081AE15EF12F017EF12F024EF12F06E04E8
:10243000D8A41DEF12F01FEF12F024EF12F0000EDF
:102440006E6E000EB4EC21F0F2A629EF12F02BEF25
:1024500012F046EF12F0F2A030EF12F032EF12F06D
:1024600046EF12F081BE37EF12F039EF12F046EF6F
:1024700012F06E50D8A43FEF12F041EF12F046EF89
:1024800012F0010E6E6E010EB4EC21F09DAC4BEF1C
:1024900012F04DEF12F056EF12F09EAC52EF12F028
:1024A00054EF12F056EF12F01CEC22F0F2AA5BEFA0
:1024B00012F05DEF12F066EF12F0F2A462EF12F08C
:1024C00064EF12F066EF12F012EC22F09DA06BEFB9
:1024D00012F06DEF12F076EF12F09EA072EF12F094
:1024E00074EF12F076EF12F012EC21F09DA27BEF68
:1024F00012F07DEF12F086EF12F09EA282EF12F042
:1025000084EF12F086EF12F008EC22F0A0A28BEF1D
:1025100012F08DEF12F096EF12F0A1A292EF12F0EE
:1025200094EF12F096EF12F002EC22F09DA49BEFD4
:1025300012F09DEF12F0A6EF12F09EA4A2EF12F09F
:10254000A4EF12F0A6EF12F063EC21F0A0A0ABEF25
:1025500012F0ADEF12F0B6EF12F0A1A0B2EF12F050
:10256000B4EF12F0B6EF12F01AEC22F00DC0DAFF61
:102570000CC0D9FF0BC0FBFF0AC0FAFF729211001A
:102580002BC043F02CC044F02DC045F02EC046F0C7
:102590002FC047F030C048F031C049F032C04AF097
:1025A0004ABED5EF12F0D8EF12F0010ED9EF12F0BB
:1025B000000E416E426A41504210D8B4E2EF12F070
:1025C000E4EF12F0F4EF12F04A1E491E481E471EB7
:1025D000461E451E441E436C000E442245224622E0
:1025E0004722482249224A2200018DBFFAEF12F009
:1025F000FCEF12F0FDEF12F065928DBF0AEF13F0C1
:102600008D5106E18C05D8B008EF13F00AEF13F0F6
:1026100010EF13F0000E3E6E010E3D6E14EF13F03E
:102620008CC03DF08DC03EF08AC03FF08BC040F0C2
:1026300041504210D8A41FEF13F021EF13F028EF00
:1026400013F065A426EF13F028EF13F02BEF13F02F
:102650003F06D8A04006000E4C6E1F0E4B6E000EBB
:102660000101536FB0EF13F04B06D8A04C06340EA7
:102670004B24D96E010E4C20DA6E43C00EF044C0DC
:102680000FF045C010F046C011F047C012F048C02E
:1026900013F049C014F04AC015F00A0E166E000E71
:1026A000176E000E186E000E196E000E1A6E000ED8
:1026B0001B6E000E1C6E000E1D6E2DEC18F00EC071
:1026C00033F00FC034F010C035F011C036F012C036
:1026D00037F013C038F014C039F015C03AF033C0E9
:1026E00020F035C021F0F2EC20F02050300FDF6EEA
:1026F0003D06D8A03E063F06D8A0400643C00EF0D7
:1027000044C00FF045C010F046C011F047C012F0B1
:1027100048C013F049C014F04AC015F00A0E166EF6
:10272000000E176E000E186E000E196E000E1A6E57
:10273000000E1B6E000E1C6E000E1D6EAEEC16F031
:102740000EC043F00FC044F010C045F011C046F079
:1027500012C047F013C048F014C049F015C04AF049
:102760004CBEBBEF13F04C5008E14B04D8A0BBEFBC
:1027700013F0BDEF13F0EDEF13F04350441045108C
:1027800046104710481049104A10D8A4CAEF13F059
:10279000CCEF13F034EF13F03EBED9EF13F03E5000
:1027A00006E13D04D8B0D7EF13F0D9EF13F034EFC2
:1027B00013F040BEE4EF13F0405008E13F04D8A00E
:1027C000E4EF13F0E6EF13F0EDEF13F065B2EBEF8B
:1027D00013F0EDEF13F034EF13F041504210D8A492
:1027E000F4EF13F0F6EF13F0FDEF13F065A4FBEF39
:1027F00013F0FDEF13F01BEF14F04B06D8A04C06BE
:1028000041504210D8A407EF14F009EF14F00FEF75
:1028100014F0000E3C6E2B0E3B6E13EF14F0000E06
:102820003C6E2D0E3B6E340E4B24D96E010E4C20A7
:10283000DA6E3BC0DFFF29C01EF02AC01FF0340E45
:102840004B24206E010E4C20216E3FC022F040C070
:1028500023F094EC1BF01EC029F01FC02AF01200D8
:102860004FC0D9FF50C0DAFFDECFF6FFDDCFF7FF54
:10287000F86A0800F550250AD8A441EF14F043EF98
:1028800014F0F2EF14F04FC0D9FF50C0DAFFDE2A87
:10289000000EDD22000E00018B6F000E8A6F8AC0D1
:1028A00065F08BC066F08C698D694FC0D9FF50C050
:1028B000DAFFDECFF6FFDDCFF7FFF86A0800F5504C
:1028C000640AD8B466EF14F068EF14F07BEF14F0EC
:1028D0004FC0D9FF50C0DAFFDECFF6FFDDCFF7FFE4
:1028E000F86A0800F550690AD8A479EF14F07BEF74
:1028F00014F0BBEF14F04FC0D9FF50C0DAFFDE2A4E
:10290000000EDD2251C0D9FF52C0DAFFDFCF53F0F5
:10291000020EDE26DFCF54F0000EDD2253C0D9FFB9
:1029200054C0DAFFDECF55F0DDCF56F0000E56BEB4
:10293000FF0E576E586E596E5A6E5B6E5C6E4DC0D0
:1029400029F04EC02AF055C02BF056C02CF057C0CD
:102950002DF058C02EF059C02FF05AC030F05BC097
:1029600031F05CC032F0C0EC12F029C04DF02AC04A
:102970004EF00EEF15F04FC0D9FF50C0DAFFDECF9A
:10298000F6FFDDCFF7FFF86A0800F550250AD8A456
:10299000CCEF14F0CEEF14F0E5EF14F04FC0D9FFF8
:1029A00050C0DAFFDE2A000EDD22000E0F6E250E6B
:1029B0000E6E4DC010F04EC011F02FEC1BF0000E4B
:1029C0004E6E010E4D6E0EEF15F04FC0D9FF50C088
:1029D000DAFFDE2A000EDD22000E4E6E000E4D6E76
:1029E0000EEF15F04FC0D9FF50C0DAFFDECFF6FF73
:1029F000DDCFF7FFF86A0800F5500E6E0F6A4DC084
:102A000010F04EC011F02FEC1BF04FC0D9FF50C09A
:102A1000DAFFDE2A000EDD22DFEF14F01200166E60
:102A20001650D8B416EF15F018EF15F03AEF15F070
:102A300011BE1FEF15F01DEF15F03AEF15F00EC0A7
:102A400012F00FC013F010C014F011C015F0121ED8
:102A5000131E141E151E122A000E132214221522F4
:102A600012C018F013C019F014C01AF015C01BF0F2
:102A700042EF15F00EC018F00FC019F010C01AF098
:102A800011C01BF00E500F1010101110D8A44BEFF6
:102A900015F04DEF15F057EF15F0000E0E6E000E0D
:102AA0000F6E000E106E000E116EE8EF15F0960E10
:102AB000176E61EF15F0172AD8901B321A321932AF
:102AC0001832000E1814126E000E1914136E000E38
:102AD0001A14146EFE0E1B14156E125013101410DF
:102AE0001510D8A476EF15F078EF15F05BEF15F020
:102AF00086EF15F0172A010E1826000E19221A2249
:102B00001B22D8901B321A3219321832000E1814B8
:102B1000126E000E1914136E000E1A14146EFF0EAE
:102B20001B14156E1250131014101510D8A49BEF1F
:102B300015F09DEF15F07AEF15F0A5EF15F01706DB
:102B4000D890183619361A361B361ABEAAEF15F069
:102B5000ACEF15F0B4EF15F0020E1760B2EF15F000
:102B6000B4EF15F09FEF15F017B0B9EF15F0BBEF0C
:102B700015F0BCEF15F01A9ED890173217C012F05E
:102B8000136A146A156A12C015F0146A136A126A7D
:102B9000125018121350191214501A1215501B12F9
:102BA0001650D8B4D6EF15F0D8EF15F0E0EF15F0C9
:102BB00011BEDFEF15F0DDEF15F0E0EF15F01B8E25
:102BC00018C00EF019C00FF01AC010F01BC011F0A1
:102BD00012001A0E216E010E226E1BEC1AF0D9C0E3
:102BE00054F1DAC055F1DBC056F1DCC057F10A0EE2
:102BF0000001E96F010EEA6F10EC08F0E40E0E6EB2
:102C0000000E0F6EDFEC18F0DD0E126E000E136E6C
:102C100054EC1CF0B19CB196000E01015C6F000EEB
:102C20005D6F000E5E6F000E5F6F1A0E216E010E5B
:102C3000226E110E236E100E246E62EC1DF01A0E21
:102C4000186E010E196E3D0E1A6EB0EC1CF0020EDD
:102C50000001B819D8A42FEF16F031EF16F095EF58
:102C600016F09451FB6F9551FC6FFD6BFE6BFCC031
:102C7000FEF0FBC0FDF0FC6BFB6B6C50FB25C16FE5
:102C80006D50FC21C26F000EFD21C36F000EFE21AE
:102C9000C46F000E396E240E3A6E740E3B6E490EF0
:102CA0003C6EC1C00EF0C2C00FF0C3C010F0C4C073
:102CB00011F0000E0FEC15F00EC035F00FC036F01D
:102CC00010C037F011C038F030EC0FF035C058F1BB
:102CD00036C059F137C05AF138C05BF158C139F0EC
:102CE00059C13AF05AC13BF05BC13CF0000E356E61
:102CF000000E366E800E376E3F0E386E30EC0FF0E1
:102D000035C05EF036C05FF037C060F038C061F0AB
:102D1000ABEC1AF05EC084F05FC085F060C086F056
:102D200061C087F0000E0001B86F5C0EF86F010EF5
:102D3000F96F8451FEEC1FF01A0E286E010E296EF9
:102D4000010E2A6E0B0E2B6E5C0E2C6E010E2D6E7C
:102D5000A7EC1FF027EF16F007EF00F0000E1F6E34
:102D60001DBEB7EF16F0B5EF16F0C9EF16F01D1E39
:102D70001C1E1B1E1A1E191E181E171E166C000E76
:102D80001722182219221A221B221C221D22010E90
:102D90001F6E15BED0EF16F0CEEF16F0E2EF16F074
:102DA000151E141E131E121E111E101E0F1E0E6C59
:102DB000000E0F2210221122122213221422152299
:102DC000010E1F1A20EE20F0070EDE6AE806FDE273
:102DD00016501710181019101A101B101C101D1067
:102DE000D8B4F5EF16F0F7EF16F049EF17F0010E33
:102DF0001E6E05EF17F0D8901636173618361936AE
:102E00001A361B361C361D361E2A1DAE0AEF17F069
:102E10000CEF17F0FBEF16F0D89020362136223653
:102E20002336243625362636273616500E5C1750A4
:102E30000F5818501058195011581A5012581B504A
:102E400013581C5014581D501558D8A02AEF17F0CD
:102E50002CEF17F03DEF17F016500E5E17500F5A7B
:102E60001850105A1950115A1A50125A1B50135A0E
:102E70001C50145A1D50155A2080D8901D321C32F7
:102E80001B321A3219321832173216321E2E0CEF3C
:102E900017F01F50D8B44FEF17F051EF17F061EF54
:102EA00017F0271E261E251E241E231E221E211E4D
:102EB000206C000E212222222322242225222622D7
:102EC000272220C00EF021C00FF022C010F023C036
:102ED00011F024C012F025C013F026C014F027C052
:102EE00015F012000EC018F00FC019F01250131098
:102EF000D8A47DEF17F07FEF17F081EF17F02CEFDC
:102F000018F018C0D9FF19C0DAFF10C0DFFF125047
:102F10001824146E13501920156EFF0E1424D96E48
:102F2000FF0E1520DA6E10C0DFFF135007E1030E0D
:102F3000125CD8B09EEF17F0A0EF17F0A2EF17F0D9
:102F40002CEF18F020EE01F01850D9261950DA2293
:102F500010C0DFFF20EE02F01850D9261950DA22F7
:102F600010C0DFFF12501824146E13501920156E74
:102F7000FE0E1424D96EFF0E1520DA6E10C0DFFF8E
:102F800012501824146E13501920156EFD0E1424BF
:102F9000D96EFF0E1520DA6E10C0DFFF135007E167
:102FA000070E125CD8B0D7EF17F0D9EF17F0DBEFB0
:102FB00017F02CEF18F020EE03F01850D926195016
:102FC000DA2210C0DFFF12501824146E135019209B
:102FD000156EFC0E1424D96EFF0E1520DA6E10C08B
:102FE000DFFF135007E1090E125CD8B0FAEF17F0BB
:102FF000FCEF17F0FEEF17F02CEF18F018C014F0EC
:1030000019C015F0141E151E144A152A030E1414A7
:10301000166E176A16501826175019221650125E8F
:103020001750135AFC0E1216FF0E131623EF18F04A
:1030300018C0D9FF19C0DAFF10C0DFFF1206D8A0F0
:103040001306184A192A12501310D8A42AEF18F0A0
:103050002CEF18F018EF18F01200000E1F6E15BEBE
:1030600036EF18F034EF18F048EF18F0151E141E64
:10307000131E121E111E101E0F1E0E6C000E0F22AC
:10308000102211221222132214221522010E1F6E69
:103090001DBE4FEF18F04DEF18F05FEF18F01D1E3A
:1030A0001C1E1B1E1A1E191E181E171E166C000E43
:1030B0001722182219221A221B221C221D22165006
:1030C0001710181019101A101B101C101D10D8B44E
:1030D0006CEF18F06EEF18F0B6EF18F0010E1E6EE0
:1030E0007CEF18F0D89016361736183619361A367F
:1030F0001B361C361D361E2A1DAE81EF18F083EFDD
:1031000018F072EF18F016500E5C17500F58185048
:103110001058195011581A5012581B5013581C505F
:1031200014581D501558D8A098EF18F09AEF18F0C1
:10313000AAEF18F016500E5E17500F5A1850105A7A
:103140001950115A1A50125A1B50135A1C50145A23
:103150001D50155AD8901D321C321B321A321932AA
:103160001832173216321E2E83EF18F01F50D8B4C3
:10317000BCEF18F0BEEF18F0CEEF18F0151E141EBD
:10318000131E121E111E101E0F1E0E6C000E0F229B
:103190001022112212221322142215220EC00EF028
:1031A0000FC00FF010C010F011C011F012C012F0DB
:1031B00013C013F014C014F015C015F01200010E66
:1031C000166E0E500F10D8B4E8EF18F0EAEF18F0B2
:1031D0005CEF19F00EC0D9FF0FC0DAFFDF30E83224
:1031E000E832070B106E080E1060F9EF18F0FBEFD5
:1031F00018F05CEF19F060EF19F00EC0D9FF0FC0A6
:10320000DAFFDF30E832E832070B106E010E116E84
:10321000102A0DEF19F0D8901136102E0BEF19F07F
:103220001150FF0A126E0EC0D9FF0FC0DAFFDF5037
:10323000070B136E1350020DCF0EF324D96E000E40
:10324000F420DA6EDECF14F0DDCF15F014C0D9FF14
:1032500015C0DAFF1250DF1681EF19F00EC0D9FF4A
:103260000FC0DAFFDF30E832E832070B106E010ED4
:10327000116E102A3EEF19F0D8901136102E3CEF47
:1032800019F00EC0D9FF0FC0DAFFDF50070B126E26
:103290001250020DCF0EF324D96E000EF420DA6E18
:1032A000DECF13F0DDCF14F013C0D9FF14C0DAFF66
:1032B0001150DF1281EF19F0000E166E81EF19F038
:1032C0000EC0D9FF0FC0DAFFDFBC69EF19F06CEF59
:1032D00019F0010E6DEF19F0000E106E116A115009
:1032E000000AD8B476EF19F05CEF19F01050000A1C
:1032F000D8B4FDEF18F0010AD8B42EEF19F05CEF46
:1033000019F016501200010E176E0E500F10D8B49F
:103310008CEF19F08EEF19F000EF1AF00EC0D9FF04
:103320000FC0DAFFDF30E832E832070B116E080E0B
:1033300011609DEF19F09FEF19F000EF1AF004EF04
:103340001AF00EC0D9FF0FC0DAFFDF30E832E832E2
:10335000070B116E010E126E112AB1EF19F0D89001
:103360001236112EAFEF19F00EC0D9FF0FC0DAFFE1
:10337000DF50070B136E1350020DC50EF324D96EE8
:10338000000EF420DA6EDECF14F0DDCF15F014C09D
:10339000D9FF15C0DAFF1250DF1219EF1AF00EC074
:1033A000D9FF0FC0DAFFDF30E832E832070B116EC9
:1033B000010E126E112ADFEF19F0D8901236112E7D
:1033C000DDEF19F01250FF0A136E0EC0D9FF0FC0C7
:1033D000DAFFDF50070B146E1450020DC50EF324F4
:1033E000D96E000EF420DA6EDECF15F0DDCF16F0C8
:1033F00015C0D9FF16C0DAFF1350DF1619EF1AF007
:10340000000E176E19EF1AF01050116E126A12505A
:10341000000AD8B40EEF1AF000EF1AF01150000AAB
:10342000D8B4CFEF19F0010AD8B4A1EF19F000EF2A
:103430001AF017501200000E256E21502210D8B439
:1034400024EF1AF026EF1AF0AAEF1AF0010E212449
:10345000186E000E2220196E0FEC1FF0266E21C090
:1034600018F022C019F00FEC1FF0266E000E256E2A
:1034700025502124236E000E2220246E020E2324C8
:10348000186E000E2420196E0FEC1FF0252A070E6F
:1034900025644DEF1AF04FEF1AF038EF1AF0340EA2
:1034A000236EF20EE82EFED7232EFCD721C018F093
:1034B00022C019F0380E1A6E09EC1DF00D0E236EA5
:1034C000FC0EE82EFED7232EFCD721C018F022C018
:1034D00019F0380E1A6E09EC1DF0640EE82EFED7B6
:1034E00021C018F022C019F0380E1A6E09EC1DF038
:1034F00021C018F022C019F0010E1A6E09EC1DF05F
:1035000021C018F022C019F0020E1A6E09EC1DF04D
:1035100021C018F022C019F0060E1A6E09EC1DF039
:1035200021C018F022C019F00C0E1A6E09EC1DF023
:1035300021C018F022C019F0380E1A6E09EC1DF0E7
:1035400021C018F022C019F0800E1A6E09EC1DF08F
:10355000AAEF1AF0120060346134636E6350D8A48D
:10356000B4EF1AF0B6EF1AF0C0EF1AF0000E5E6E6C
:10357000000E5F6E000E606E000E616E2EEF1BF08F
:103580005EC0E5F05FC0E6F060C0E7F061C0E8F063
:10359000200ED1EF1AF00001D890E833E733E6337C
:1035A000E533E82ECBEF1AF0E551626E608EFF0E28
:1035B0005E16FF0E5F16FF0E6016000E6116960E69
:1035C000635E63BEE8EF1AF0E6EF1AF0FEEF1AF062
:1035D0006350800A970FD8B0F0EF1AF0F2EF1AF0AC
:1035E000F4EF1AF0B6EF1AF0D890613260325F3221
:1035F0005E32633EF4EF1AF016EF1BF01F0E6364A9
:1036000004EF1BF006EF1BF00EEF1BF0B6EF1AF005
:10361000D8905E365F366036613663066350D8A454
:1036200014EF1BF016EF1BF008EF1BF06250D8B43C
:103630001CEF1BF01EEF1BF026EF1BF0611E601E3F
:103640005F1E5E6C000E5F22602261225EC05EF033
:103650005FC05FF060C060F061C061F012001050A8
:103660001110D8B436EF1BF038EF1BF041EF1BF010
:1036700010501110D8A43FEF1BF041EF1BF046EFA4
:103680001BF00E501EEC22F093EF1BF020EE09F021
:103690001050D9261150DA22DE50DE10D8B453EF84
:1036A0001BF055EF1BF070EF1BF020EE09F01050EF
:1036B000D9261150DA2210EE03F01050E1261150F5
:1036C000E222DE50E65CE650800A166EDE50800A8A
:1036D0001658D8B06EEF1BF070EF1BF093EF1BF095
:1036E00020EE03F01050D9261150DA22DECF12F06E
:1036F000DDCF13F010C0D9FF11C0DAFFDECF14F018
:10370000DDCF15F012501424D96E13501520DA6E47
:103710000EC0DFFF20EE03F01050D9261150DA2240
:10372000DE2A000EDD22120065A099EF1BF09BEF50
:103730001BF0A5EF1BF020C017F021C018F01EC031
:1037400019F01FC01AF0D0EC20F023BEAAEF1BF036
:10375000ACEF1BF0B2EF1BF022C027F023C028F023
:10376000B6EF1BF0000E286E000E276E000E266EC0
:10377000000E256EC8EF1BF0000E0F6E200E0E6EB1
:103780001EC010F01FC011F02FEC1BF0254A262A96
:103790002750255C2650800A246E2850800A245821
:1037A000D8A0D5EF1BF0D7EF1BF0BCEF1BF065B036
:1037B000DCEF1BF0DEEF1BF0E8EF1BF020C017F092
:1037C00021C018F01EC019F01FC01AF0D0EC20F074
:1037D00020C00EF021C00FF02EEC21F027500E2457
:1037E0001E6E28500F201F6E120021502210D8B4D8
:1037F000FCEF1BF0FEEF1BF031EF1CF0240635EF61
:103800001CF021C018F022C019F02450800F1A6E4D
:1038100009EC1DF0276E52EF1CF021C018F022C0F9
:1038200019F02450C00F1A6E09EC1DF0276E52EFEC
:103830001CF021C018F022C019F02450940F1A6E09
:1038400009EC1DF0276E52EF1CF021C018F022C0C9
:1038500019F02450D40F1A6E09EC1DF0276E52EFA8
:103860001CF0000E276E52EF1CF02350256E266AC6
:103870002650000AD8B43FEF1CF031EF1CF0255061
:10388000010AD8B401EF1CF0030AD8B40DEF1CF004
:10389000010AD8B419EF1CF0070AD8B425EF1CF0C0
:1038A00031EF1CF02750120012501310D8B45BEF08
:1038B0001CF05DEF1CF0AFEF1CF012C00EF013C057
:1038C0000FF0A7EC21F012C00EF013C00FF08CEC3B
:1038D0001EF012C00EF013C00FF029EC20F012C041
:1038E0000EF013C00FF053EC20F012C00EF013C016
:1038F0000FF0FDEC1DF012C00EF013C00FF07DECC8
:1039000020F012C00EF013C00FF020EE03F01250A2
:10391000D9261350DA22DECF10F0DDCF11F077EC8C
:103920001FF020EE03F01250D9261350DA22DECF1A
:1039300069F0DDCF6AF012C00EF013C00FF0D3ECC7
:103940001FF012C00EF013C00FF08BEC21F012C06C
:103950000EF013C00FF09AEC21F0AFEF1CF0120044
:10396000010E1F6E18501910D8B4B9EF1CF0BBEF40
:103970001CF005EF1DF018C00EF019C00FF0010E7D
:10398000106E83EC19F0000E206E205018241B6E70
:10399000000E19201C6E020E1B240E6E000E1C2041
:1039A0000F6E20C01DF01AC01EF01D2ADAEF1CF0A9
:1039B000D8901E321D2ED8EF1CF01E50010B106E39
:1039C00083EC19F0202A070E2064E9EF1CF0EBEFDE
:1039D0001CF0C5EF1CF0010E18240E6E000E19200D
:1039E0000F6E010E106E83EC19F0030EE82EFED759
:1039F00000F0010E18240E6E000E19200F6E000E3E
:103A0000106E83EC19F007EF1DF0000E1F6E1F50B3
:103A10001200010E1F6E18501910D8B412EF1DF0CD
:103A200014EF1DF05EEF1DF018C00EF019C00FF07E
:103A3000000E106E83EC19F0000E206E205018243A
:103A40001B6E000E19201C6E020E1B240E6E000E43
:103A50001C200F6E20C01DF01AC01EF01D2A33EF6F
:103A60001DF0D8901E321D2E31EF1DF01E50010B9F
:103A7000106E83EC19F0202A070E206442EF1DF02F
:103A800044EF1DF01EEF1DF0010E18240E6E000E07
:103A900019200F6E010E106E83EC19F0030EE82E44
:103AA000FED700F0010E18240E6E000E19200F6EC6
:103AB000000E106E83EC19F060EF1DF0000E1F6E0B
:103AC0001F501200010E256E21502210D8B46BEF4A
:103AD0001DF06DEF1DF0AEEF1DF023502410D8B493
:103AE00074EF1DF076EF1DF0AEEF1DF093EF1DF0BB
:103AF00021C018F022C019F023C0F6FF24C0F7FF40
:103B0000000EF86E0F0EF76403D00800F55005D0D4
:103B1000F6CFE9FFF7CFEAFFEF501A6EB0EC1CF0DA
:103B2000256E234A242A23C0F6FF24C0F7FF000E87
:103B3000F86E0F0EF76403D00800F55005D0F6CFED
:103B4000E9FFF7CFEAFFEF500009D8A4AAEF1DF074
:103B5000ACEF1DF078EF1DF0B0EF1DF0000E256EFC
:103B60002550120001500210D8B4B9EF1DF0BBEF80
:103B70001DF0FCEF1DF003500410D8B4C2EF1DF08F
:103B8000C4EF1DF0FCEF1DF020EE06F00150D92629
:103B90000250DA22DF50D8A4D0EF1DF0D2EF1DF092
:103BA000E0EF1DF0BECF06F0BFCF07F003C0D9FF96
:103BB00004C0DAFF06C0DEFF07C0DDFFFCEF1DF02A
:103BC00020EE06F00150D9260250DA22DE04D8A4F5
:103BD000ECEF1DF0EEEF1DF0FCEF1DF0BBCF08F099
:103BE000BCCF09F003C0D9FF04C0DAFF08C0DEFF74
:103BF00009C0DDFFFCEF1DF012000E500F10D8B40D
:103C000004EF1EF006EF1EF01CEF1EF01EEF1EF07C
:103C1000CF0ECD1644EF1EF0CD50CF0B1009CD6E58
:103C200044EF1EF0CD50CF0B2009CD6E44EF1EF0B7
:103C3000300ECD1244EF1EF044EF1EF020EE06F0E1
:103C40000E50D9260F50DA22DF30E832E832030B6B
:103C5000106E116A1150000AD8B431EF1EF01CEF3B
:103C60001EF01050000AD8B408EF1EF0010AD8B4B4
:103C70000CEF1EF0030AD8B412EF1EF0010AD8B4FC
:103C800018EF1EF01CEF1EF01200920EF66E420EA0
:103C9000F76E000EF86E01EE00F010EE34F0090041
:103CA000F5CFEEFFE550E150FAE1F60EF66E420E6A
:103CB000F76E000EF86E00EEC5F010EE20F0090071
:103CC000F5CFEEFFE550E150FAE1200EF66E440E1E
:103CD000F76E000EF86E00EE6EF010EE04F00900C4
:103CE000F5CFEEFFE550E150FAE101EE34F0200EA1
:103CF000EE6AE806FDE100EE80F0450EEE6AE806A9
:103D0000FDE100EE65F0090EEE6AE806FDE1729055
:103D100072920001E9EF15F00E500F10D8B493EF36
:103D20001EF095EF1EF0D1EF1EF020EE05F00E50C4
:103D3000D9260F50DA22DF50D8A4A1EF1EF0A3EF4E
:103D40001EF0B3EF1EF020EE06F00E50D9260F50F5
:103D5000DA22DFB0AEEF1EF0B0EF1EF0B3EF1EF0D0
:103D6000CD92D1EF1EF020EE05F00E50D9260F5067
:103D7000DA22DE04D8A4BFEF1EF0C1EF1EF0D1EFAF
:103D80001EF020EE06F00E50D9260F50DA22DFA0EA
:103D9000CCEF1EF0CEEF1EF0D1EF1EF0CD82D1EFB2
:103DA0001EF012000001B82B6B50D8A4DAEF1EF001
:103DB000DCEF1EF0ECEF1EF0000ECF6E000ECE6EAC
:103DC000000E936F000E926FDD0E016E000E026EFC
:103DD000E8EC21F00CEF1FF06B04D8A4F2EF1EF01A
:103DE000F4EF1EF00CEF1FF096C094F097C095F022
:103DF000000E976F000E966F0A0E016E010E026E96
:103E00006C0E036E000E046EB2EC1DF0DD0E016E42
:103E1000000E026EF5EC21F0010E6B1A1200185024
:103E20001910D8B416EF1FF018EF1FF041EF1FF074
:103E300018C0D9FF19C0DAFFDF30E832E832070BCB
:103E40001A6E080E1A6027EF1FF029EF1FF041EFDE
:103E50001FF018C00EF019C00FF0DFEC18F01B6E49
:103E600018C00EF019C00FF018C0D9FF19C0DAFF42
:103E7000000EDFBE010E106E83EC19F01B6E43EFD7
:103E80001FF0000E1B6E1B5012005FC063F060C07D
:103E900064F0000E0001896F000E886F63EF1FF061
:103EA0005DC04DF05EC04EF0630E4F6E000E506E62
:103EB00061C051F062C052F030EC14F04D5000017E
:103EC00088274E50892363C0F6FF64C0F7FFF86A65
:103ED0000800F5500009D8A470EF1FF072EF1FF032
:103EE00050EF1FF088C05DF089C05EF012000E50E8
:103EF0000F10D8B47EEF1FF080EF1FF0A6EF1FF079
:103F000020EE06F00E50D9260F50DA22DFAA8BEFF2
:103F10001FF08DEF1FF093EF1FF010C0CEFF11C008
:103F2000CFFFA6EF1FF020EE06F00E50D9260F505F
:103F3000DA22DFBA9EEF1FF0A0EF1FF0A6EF1FF00E
:103F40001150CF6E10C0CEFFA6EF1FF01200285008
:103F50002910D8B4AEEF1FF0B0EF1FF0D2EF1FF072
:103F60002CC0D9FF2DC0DAFFDF50D8B4BAEF1FF054
:103F7000BCEF1FF0D2EF1FF028C021F029C022F0C3
:103F80002AC023F02BC024F0F5EC1BF028C021F050
:103F900029C022F02CC023F02DC024F062EC1DF0CB
:103FA000D2EF1FF012000E500F10D8B4DAEF1FF04E
:103FB000DCEF1FF0FDEF1FF000019C519D11D8A414
:103FC000E4EF1FF0E6EF1FF0FDEF1FF00EC0D9FF8A
:103FD0000FC0DAFFDE50DE10D8B4F1EF1FF0F3EFC0
:103FE0001FF0FDEF1FF00EC0D9FF0FC0DAFFDECFCC
:103FF0009CF0DDCF9DF0FDEF1FF012000001FA6F85
:104000000001F851F911D8B408EF20F00AEF20F0C0
:1040100028EF20F0F8C00EF0F9C00FF0000E116E7E
:10402000000E106E000E136E040E126E72EC17F07E
:10403000F8C0E5F0F9C0E6F01B0E0001E76F100EC6
:10404000E86FFAC0E9F0EA6BA7EC20F028EF20F067
:1040500012000E500F10D8B430EF20F032EF20F0E5
:1040600052EF20F020EE06F00E50D9260F50DA2243
:10407000DFB23DEF20F03FEF20F042EF20F0CD9493
:1040800052EF20F020EE06F00E50D9260F50DA2223
:10409000DFA24DEF20F04FEF20F052EF20F0CD8463
:1040A00052EF20F012000E500F10D8B45AEF20F04B
:1040B0005CEF20F07CEF20F020EE06F00E50D926C9
:1040C0000F50DA22DFAA67EF20F069EF20F06CEFE3
:1040D00020F0CD8E7CEF20F020EE06F00E50D92699
:1040E0000F50DA22DFBA77EF20F079EF20F07CEF83
:1040F00020F0CD9E7CEF20F012000E500F10D8B4AF
:1041000084EF20F086EF20F0A6EF20F020EE06F0FE
:104110000E50D9260F50DA22DFA491EF20F093EF52
:1041200020F096EF20F0CD86A6EF20F020EE06F0EE
:104130000E50D9260F50DA22DFB4A1EF20F0A3EF02
:1041400020F0A6EF20F0CD96A6EF20F01200E90EA9
:104150000001EB6F000EEC6FE5C0EDF0E6C0EEF095
:10416000000EF16F000EF06F000EF76F000EF66F8D
:10417000ED0E5D6E000E5E6EE7C05FF0E8C060F0B1
:10418000EB0E616E000E626E45EC1FF00001F05107
:10419000E525D96EF151E621DA6E000EDF6E1200D0
:1041A000000E1D6E000E1C6EE1EF20F01BC00EF025
:1041B0000F6A19C010F01AC011F02FEC1BF01C4A46
:1041C0001D2A1C501724D96E1D501820DA6EDF509E
:1041D0001B6E1B50D8A4EFEF20F0F1EF20F0D6EFCC
:1041E00020F0120021BEFFEF20F0215006E1200454
:1041F000D8B0FDEF20F0FFEF20F00DEF21F020C050
:1042000022F021C023F0221E231E224A232A22C08C
:1042100020F023C021F011EF21F020C020F021C0B8
:1042200021F012009E906A50CF6E69C0CEFF00014F
:104230009C519D11D8B41FEF21F021EF21F02DEFFB
:1042400021F002D82DEF21F00500FA6E9C51FD6E91
:104250009D51FE6EFF6AFA50120012000EC010F05F
:104260000FC011F036EF21F00E4A0F2A0EC0D9FF11
:104270000FC0DAFFDF50D8A440EF21F042EF21F069
:1042800034EF21F010500E5C0E6E11500F580F6E6F
:104290001200800F810F820F830F840FA43D000056
:1042A000010000010500000000000000030B0109EF
:1042B000111921293139323A030B131B232B333BBC
:1042C000020A121A222A9E94000190519111D8B428
:1042D0006CEF21F06EEF21F07AEF21F002D87AEF47
:1042E00021F00500FA6E9051FD6E9151FE6EFF6A4D
:1042F000FA5012001200890F8A0F8B0F8C0F8D0F4E
:10430000920F930F940F950F960F31303100184490
:104310000100000020520E500F10D8B492EF21F08F
:1043200094EF21F099EF21F09D80F28EF28C99EFBD
:1043300021F012000E500F10D8B4A1EF21F0A3EF1E
:1043400021F0A6EF21F0CD80A6EF21F012000E5053
:104350000F10D8B4AEEF21F0B0EF21F0B3EF21F0A1
:10436000CD90B3EF21F01200016EF2900150D8A46D
:10437000BCEF21F0BEEF21F0C0EF21F0C0EF21F043
:104380001200016EF2900150D8A4C9EF21F0CBEFDA
:1043900021F0CDEF21F0CDEF21F01200016EF2906F
:1043A0000150D8A4D6EF21F0D8EF21F0DAEF21F0B8
:1043B000DAEF21F01200016EF2900150D8A4E3EF81
:1043C00021F0E5EF21F0E7EF21F0E7EF21F0120017
:1043D00001500210D8B4EFEF21F0F1EF21F0F4EF2B
:1043E00021F0CD80F4EF21F0120001500210D8B47A
:1043F000FCEF21F0FEEF21F001EF22F0CD9001EF74
:1044000022F01200A1926850B36E67C0B2FF120092
:104410009E92B9C0CCFF12000001964B972B120060
:1044200001010101F2941200F0921200F0901200CA
:0E443000F2921200A19012009E9C1200120047
:020000040020DA
:08000000FFFFFFFFFFFFFFFF00
:020000040030CA
:0E000000FF02091EFF8181FF0FC00FE00F40BD
:00000001FF
