:0400000007EF00F016
:0A0008007282FDED10F047EF1EF0CC
:10100000003738392F3435362A3132332D23303DED
:0F1010002B4672657175656E6379002569000066
:101020000001EB51EC11D8B418EF08F01AEF08F0FA
:10103000BAEF0AF020EE06F0EB51D926EC51DA2295
:10104000DF50D8A426EF08F028EF08F02CEF08F0C6
:10105000F00EBD163EEF08F020EE06F0EB51D9265B
:10106000EC51DA22DE04D8A438EF08F03AEF08F0A9
:101070003EEF08F0F00EBA163EEF08F020EE07F053
:10108000EB51D926EC51DA22DF50D8A44AEF08F010
:101090004CEF08F0F8EF08F020EE06F0EB51D926FF
:1010A000EC51DA22DF50D8A458EF08F05AEF08F0DC
:1010B000A3EF08F07CEF08F0BD50F00B0209BD6E05
:1010C0007FEF0AF0BD50F00B0809BD6E7FEF0AF00C
:1010D000BD50F00B0909BD6E7FEF0AF0BD50F00B5B
:1010E0000A09BD6E7FEF0AF0BD50F00B0B09BD6E13
:1010F0007FEF0AF07FEF0AF020EE08F0EB51D926DF
:10110000EC51DA22DF50ED6FEE6BEE51000AD8B4ED
:101110008CEF08F07AEF08F0ED51020AD8B45CEFDA
:1011200008F00A0AD8B462EF08F0010AD8B468EFF0
:1011300008F0030AD8B46EEF08F0010AD8B474EFCF
:1011400008F07AEF08F020EE06F0EB51D926EC51CA
:10115000DA22DE04D8A4AFEF08F0B1EF08F07AEF9E
:1011600008F0D1EF08F0BA50F00B0209BA6E7FEF29
:101170000AF0BA50F00B0809BA6E7FEF0AF0BA50C5
:10118000F00B0909BA6E7FEF0AF0BA50F00B0A09AA
:10119000BA6E7FEF0AF0BA50F00B0B09BA6E7FEF10
:1011A0000AF020EE08F0EB51D926EC51DA22DF509C
:1011B000ED6FEE6BEE51000AD8B4E1EF08F07AEF74
:1011C00008F0ED51020AD8B4B3EF08F00A0AD8B417
:1011D000B9EF08F0010AD8B4BFEF08F0030AD8B499
:1011E000C5EF08F0010AD8B4CBEF08F07AEF08F0A9
:1011F00020EE07F0EB51D926EC51DA22DE04D8A418
:1012000004EF09F006EF09F09CEF09F020EE06F07C
:10121000EB51D926EC51DA22DF50D8A412EF09F0B5
:1012200014EF09F051EF09F02EEF09F0BD50F00B6B
:101230000409BD6E7FEF0AF0BD50F00B0509BD6ECD
:101240007FEF0AF0BD50F00B0609BD6E7FEF0AF08C
:10125000BD50F00B0709BD6E7FEF0AF020EE08F0DD
:10126000EB51D926EC51DA22DF50ED6FEE6BEE51E7
:10127000000AD8B43EEF09F07AEF08F0ED51040A05
:10128000D8B416EF09F0010AD8B41CEF09F0030A2C
:10129000D8B422EF09F0010AD8B428EF09F07AEFA8
:1012A00008F020EE06F0EB51D926EC51DA22DE04EC
:1012B000D8A45DEF09F05FEF09F07AEF08F079EF5D
:1012C00009F0BA50F00B0409BA6E7FEF0AF0BA5079
:1012D000F00B0509BA6E7FEF0AF0BA50F00B060961
:1012E000BA6E7FEF0AF0BA50F00B0709BA6E7FEFC3
:1012F0000AF020EE08F0EB51D926EC51DA22DF504B
:10130000ED6FEE6BEE51000AD8B489EF09F07AEF79
:1013100008F0ED51040AD8B461EF09F0010AD8B41D
:1013200067EF09F0030AD8B46DEF09F0010AD8B4E9
:1013300073EF09F07AEF08F020EE07F0EB51D926B1
:10134000EC51DA22020EDE18D8A4A9EF09F0ABEFB7
:1013500009F07AEF08F020EE06F0EB51D926EC51B7
:10136000DA22DF50D8A4B7EF09F0B9EF09F0BFEFE8
:1013700009F0BD50F00B0C09BD6ED3EF09F020EE63
:1013800006F0EB51D926EC51DA22DE04D8A4CBEFDB
:1013900009F0CDEF09F0D3EF09F0BA50F00B0C09CA
:1013A000BA6ED3EF09F0000E206E000E216E800E93
:1013B000226E400E236E20EE09F0EB51D926EC513F
:1013C000DA22DECF0EF0DECF0FF0DECF10F0DECF70
:1013D00011F0000E0FEC15F00EC01CF00FC01DF048
:1013E00010C01EF011C01FF01BEC0DF01CC0EFF080
:1013F0001DC0F0F01EC0F1F01FC0F2F0000120EEA1
:101400000DF0EB51D926EC51DA22DF50030BED6FD2
:10141000ED510E6E0F6A106A116A010E0FEC15F095
:101420000EC020F00FC021F010C022F011C023F038
:10143000EFC01CF0F0C01DF0F1C01EF0F2C01FF0B4
:101440001BEC0DF01CC0F3F01DC0F4F01EC0F5F055
:101450001FC0F6F0000E526E000E536E800E546EDA
:10146000BF0E556E000120EE0DF0EB51D926EC5168
:10147000DA22DF30E8320F0BED6FED510E6E0F6A9E
:10148000106A116A010E0FEC15F00EC020F00FC0AB
:1014900021F010C022F011C023F0F3C01CF0F4C002
:1014A0001DF0F5C01EF0F6C01FF01BEC0DF01CC0C7
:1014B00039F01DC03AF01EC03BF01FC03CF0000EDA
:1014C000356E240E366E740E376E4A0E386E30EC62
:1014D0000FF035C04EF036C04FF037C050F038C076
:1014E00051F0BBEC0AF04EC05EF04FC05FF050C050
:1014F00060F051C061F0ADEC1AF05E50CB6E0001AF
:1015000020EE06F0EB51D926EC51DA22DF50D8A4B8
:101510008CEF0AF08EEF0AF09AEF0AF09D849E9409
:10152000EBC0D9FFECC0DAFFDECF90F0DDCF91F059
:10153000B6EF0AF020EE06F0EB51D926EC51DA2294
:10154000DE04D8A4A6EF0AF0A8EF0AF0B6EF0AF07E
:10155000A080A19020EE02F0EB51D926EC51DA22C6
:10156000DECF8EF0DDCF8FF0B6EF0AF0F28EF28C88
:10157000BAEF0AF012005150800B5A6E51505124AC
:101580005C6E50AEC6EF0AF0C8EF0AF0C9EF0AF081
:101590005C805C50D8B4CFEF0AF0D1EF0AF0E6EFF0
:1015A0000AF05C28D8A4D7EF0AF0D9EF0AF0E1EFEF
:1015B0000AF0000E4E6E000E4F6E000E506E000EC2
:1015C000516E508E000E516EEEEF0AF0000E4E6E10
:1015D000000E4F6E000E506E000E516E5550800B77
:1015E0005B6E5A505B18D8B4F8EF0AF0FAEF0AF0C5
:1015F000FBEF0AF05A8C555055245B6E54AE03EF46
:101600000BF005EF0BF006EF0BF05B805B50D8B4EE
:101610000CEF0BF00EEF0BF023EF0BF05B28D8A4D0
:1016200014EF0BF016EF0BF01EEF0BF0000E526EE6
:10163000000E536E000E546E000E556E548E000E4A
:10164000556E2BEF0BF0000E526E000E536E000E17
:10165000546E000E556E5C505B5CD8B032EF0BF0F0
:1016600034EF0BF05BEF0BF05AAC39EF0BF03BEFC4
:101670000BF03DEF0BF0800E5A1A5CC05DF05BC0C2
:101680005CF05DC05BF04EC05DF052C04EF05DC0DE
:1016900052F04FC05DF053C04FF05DC053F050C0EA
:1016A0005DF054C050F05DC054F051C05DF055C0C5
:1016B00051F05DC055F0000E5D6E5C505BC056F0A1
:1016C000576A565E000E575A57BE70EF0BF05750D0
:1016D00009E11A0E565CD8A070EF0BF072EF0BF018
:1016E000A9EF0BF04E504F1050105110D8A47BEFC3
:1016F0000BF07EEF0BF0010E7FEF0BF0000E5D6E36
:10170000000E4E6E000E4F6E000E506E000E516EAB
:101710005BC05CF0B2EF0BF05DA091EF0BF093EFCC
:101720000BF099EF0BF0D8905D3001095D6E9BEFE7
:101730000BF0D8905D324EA0A0EF0BF0A2EF0BF0B3
:10174000A3EF0BF05D8E5134513250324F324E3296
:101750005C2A5B505C5CD8A0B0EF0BF0B2EF0BF0F2
:101760008CEF0BF05ABCB7EF0BF0B9EF0BF0F9EFC1
:101770000BF05C50D8A4BFEF0BF0C1EF0BF0CBEF38
:101780000BF0000E4E6E000E4F6E000E506E000EEF
:10179000516E1AEF0DF052504E2653504F225450B6
:1017A00050225550512251A0D8EF0BF0DAEF0BF038
:1017B00086EF0CF05DA0DFEF0BF0E1EF0BF0E7EF51
:1017C0000BF0D8905D3001095D6EE9EF0BF0D89019
:1017D0005D324EA0EEEF0BF0F0EF0BF0F1EF0BF0FF
:1017E0005D8E5134513250324F324E325C2A86EF88
:1017F0000CF052504E5C53504F585450505851506A
:10180000800A566E5550800A5658D8B00AEF0CF030
:101810000CEF0CF037EF0CF04E50525C566E4F5000
:101820005358576E50505458586E51505558596E21
:10183000FF0E56244E6EFF0E57204F6EFF0E58209F
:10184000506EFF0E5920516E800E5A1A5D6C5D501D
:10185000D8A42DEF0CF02FEF0CF03FEF0CF0010EA1
:101860004E26000E4F22502251223FEF0CF05250D4
:101870004E5E53504F5A5450505A5550515A4E5034
:101880004F1050105110D8A448EF0CF04AEF0CF054
:101890007FEF0CF05D50D8A450EF0CF052EF0CF03D
:1018A0007FEF0CF0000E4E6E000E4F6E000E506E6D
:1018B000000E516E1AEF0DF0D8904E364F3650365E
:1018C00051365DAE66EF0CF068EF0CF069EF0CF08E
:1018D0004E805DA06EEF0CF070EF0CF074EF0CF02A
:1018E000D8805D3676EF0CF0D8905D365C50D8B479
:1018F0007CEF0CF07EEF0CF07FEF0CF05C0650AE4E
:1019000084EF0CF086EF0CF05CEF0CF0000E5B6ED9
:101910005DAE8DEF0CF08FEF0CF0A7EF0CF05DC01B
:1019200056F07F0E5616D8B498EF0CF09AEF0CF0E4
:101930009EEF0CF0010E5B6EA7EF0CF04EA0A3EF34
:101940000CF0A5EF0CF0A7EF0CF09AEF0CF05B5049
:10195000D8B4ADEF0CF0AFEF0CF0DAEF0CF0010EF5
:101960004E26000E4F225022512251A0BAEF0CF009
:10197000BCEF0CF0DAEF0CF04EC056F04FC057F051
:1019800050C058F051C059F059345932583257327A
:10199000563256C04EF057C04FF058C050F059C0A4
:1019A00051F05C28D8B4D7EF0CF0D9EF0CF0DAEF97
:1019B0000CF05C2A5C28D8B4E0EF0CF0E2EF0CF0FD
:1019C000EAEF0CF05C50D8A4E8EF0CF0EAEF0CF072
:1019D000FCEF0CF0000E4E6E000E4F6E000E506EBF
:1019E000000E516E5C50D8A4F8EF0CF0FAEF0CF03A
:1019F000FCEF0CF0000E5A6E5CA001EF0DF003EF4F
:101A00000DF006EF0DF0508E07EF0DF0509ED890C0
:101A10005C30516E5AAE0FEF0DF011EF0DF012EF7A
:101A20000DF0518E4EC04EF04FC04FF050C050F0F0
:101A300051C051F012001F50800B286E1F501F2400
:101A40002E6E1EAE26EF0DF028EF0DF029EF0DF0F3
:101A50002E802E50D8B42FEF0DF031EF0DF044EF63
:101A60000DF02E28D8A437EF0DF039EF0DF041EF2F
:101A70000DF0000E1C6E000E1D6E000E1E6E000E90
:101A80001F6E1E8E4CEF0DF0000E1C6E000E1D6EB4
:101A9000000E1E6E000E1F6E2350800B281A23505E
:101AA0002324296E22AE57EF0DF059EF0DF05AEFB7
:101AB0000DF029802950D8B460EF0DF062EF0DF0E1
:101AC00075EF0DF02928D8A468EF0DF06AEF0DF03E
:101AD00072EF0DF0000E206E000E216E000E226ED1
:101AE000000E236E228E7DEF0DF0000E206E000E94
:101AF000216E000E226E000E236E2950D8B483EFA3
:101B00000DF085EF0DF08DEF0DF02E50D8A48BEF7A
:101B10000DF08DEF0DF097EF0DF0000E1C6E000E26
:101B20001D6E000E1E6E000E1F6E2FEF0FF0225066
:101B30001C02F3CF33F0F4CF34F033502A6E2B6A0B
:101B40002C6A2D6A34502F6E306A316A326A215005
:101B50001D02F3CF33F0F4CF34F033502A26000EB9
:101B60002B222C222D2234502F26000E30223122FF
:101B7000322220501E02F3CF33F0F4CF34F0335032
:101B80002A26000E2B222C222D2234502F26000E26
:101B90003022312232222CC02DF02BC02CF02AC052
:101BA0002BF02A6A20501D02F3CF33F0F4CF34F02B
:101BB00033502A2634502B22000E2C22000E2D22C8
:101BC00021501C02F3CF33F0F4CF34F033502A26E7
:101BD00034502B22000E2C22000E2D222CC02DF072
:101BE0002BC02CF02AC02BF02A6A20501C02F3CF05
:101BF00033F0F4CF34F033502A2634502B22000E29
:101C00002C22000E2D2222501D02F3CF33F0F4CFF0
:101C100034F033502F2634503022000E3122000E83
:101C2000322221501E02F3CF33F0F4CF34F0335080
:101C30002F2634503022000E3122000E3222225044
:101C40001E02F3CF33F0F4CF34F03350246E34500F
:101C5000256E266A276A26C027F025C026F024C0F4
:101C600025F0246A24502F26255030222650312278
:101C7000275032222AC024F02BC025F02CC026F099
:101C80002DC027F0190E4AEF0EF0D89027322632D9
:101C900025322432E82E45EF0EF024502F26255011
:101CA000302226503122275032222CC02DF02BC05A
:101CB0002CF02AC02BF02A6A29502EC024F0256A65
:101CC0002426000E2522820E2424336EFF0E2520AA
:101CD000346E80EF0EF0D8902F36303631363236F3
:101CE0002DAE75EF0EF077EF0EF078EF0EF02F803F
:101CF000D8902A362B362C362D363306D8A034060B
:101D000031AE85EF0EF087EF0EF06BEF0EF0000EA8
:101D1000296E2DAE8EEF0EF090EF0EF0B4EF0EF0B8
:101D2000FF0E2A14246EFF0E2B14256EFF0E2C14AA
:101D3000266E7F0E2D14276E245025102610271096
:101D4000D8B4A5EF0EF0A7EF0EF0ABEF0EF0010E3A
:101D5000296EB4EF0EF02FA0B0EF0EF0B2EF0EF040
:101D6000B4EF0EF0A7EF0EF02950D8B4BAEF0EF092
:101D7000BCEF0EF0E0EF0EF0010E2F26000E302229
:101D80003122322232A0C7EF0EF0C9EF0EF0E0EFA1
:101D90000EF02FC024F030C025F031C026F032C044
:101DA00027F02734273226322532243224C02FF060
:101DB00025C030F026C031F027C032F0334A342A33
:101DC00034BEEBEF0EF0345008E13328D8A0EBEF2F
:101DD0000EF0EDEF0EF0F7EF0EF0000E2F6E000E8E
:101DE000306E800E316E7F0E326E25EF0FF034BEF6
:101DF00004EF0FF0345006E13304D8B002EF0FF0D7
:101E000004EF0FF010EF0FF0000E2F6E000E306E8B
:101E1000000E316E000E326E000E286E25EF0FF0B0
:101E200033C02EF0FF0E2F16FF0E30167F0E311628
:101E3000000E32162EA01FEF0FF021EF0FF022EF51
:101E40000FF0318ED8902E30326E285032122FC0C3
:101E50001CF030C01DF031C01EF032C01FF0120067
:101E60003850800B456E385038244C6E37AE3BEFFF
:101E70000FF03DEF0FF03EEF0FF04C804C50D8B418
:101E800044EF0FF046EF0FF05BEF0FF04C28D8A4B3
:101E90004CEF0FF04EEF0FF056EF0FF0000E356ED7
:101EA000000E366E000E376E000E386E378E000E46
:101EB000386E63EF0FF0000E356E000E366E000EBA
:101EC000376E000E386E3C50800B451A3C503C2457
:101ED0004D6E3BAE6EEF0FF070EF0FF071EF0FF045
:101EE0004D804D50D8B477EF0FF079EF0FF08EEFB3
:101EF0000FF04D28D8A47FEF0FF081EF0FF089EF9E
:101F00000FF0000E396E000E3A6E000E3B6E000EA2
:101F10003C6E3B8E000E3C6E96EF0FF0000E396E5D
:101F2000000E3A6E000E3B6E000E3C6E39503A10B9
:101F30003B103C10D8A49FEF0FF0A1EF0FF0B9EFCA
:101F40000FF0000E356E000E366E000E376E000E6E
:101F5000386E800E37127F0E38124550381235C059
:101F600035F036C036F037C037F038C038F0FCEF07
:101F700010F04C50D8A4BFEF0FF0C1EF0FF0CBEF33
:101F80000FF0000E356E000E366E000E376E000E2E
:101F9000386EFCEF10F04D504CC03DF03E6A3D5E97
:101FA000000E3E5A7F0E3D24466E000E3E20476EC8
:101FB00035C041F036C042F037C043F038C044F07D
:101FC000000E356E000E366E000E376E000E386E47
:101FD000000E486E000E496E000E4A6E000E4B6EEB
:101FE000000E4D6E2CEF10F04D50D8B4FAEF0FF0FC
:101FF000FCEF0FF013EF10F0D89041364236433625
:102000004436D89035363636373638364BAE0BEF49
:1020100010F00DEF10F00EEF10F03580D89048362C
:1020200049364A364B363950415C3A5042583B505B
:1020300043583C504458D8A020EF10F022EF10F045
:102040002BEF10F04B8C3950415E3A50425A3B50C6
:10205000435A3C50445A4D2A190E4D6432EF10F049
:1020600034EF10F0F4EF0FF04150421043104410E1
:10207000D8B43DEF10F03FEF10F057EF10F048806C
:1020800057EF10F0D89035363636373638364BAEF7
:102090004CEF10F04EEF10F04FEF10F03580D8906D
:1020A000483649364A364B364606D8A0470637AE3C
:1020B0005CEF10F05EEF10F042EF10F0000E4D6E8E
:1020C0004BAE65EF10F067EF10F08BEF10F0FF0EE6
:1020D00048143D6EFF0E49143E6EFF0E4A143F6ECB
:1020E0007F0E4B14406E3D503E103F104010D8B450
:1020F0007CEF10F07EEF10F082EF10F0010E4D6ECD
:102100008BEF10F035A087EF10F089EF10F08BEF18
:1021100010F07EEF10F04D50D8B491EF10F093EF27
:1021200010F0B7EF10F0010E3526000E36223722E0
:10213000382238A09EEF10F0A0EF10F0B7EF10F0AB
:1021400035C03DF036C03EF037C03FF038C040F0FB
:10215000403440323F323E323D323DC035F03EC029
:1021600036F03FC037F040C038F0464A472A47BEF5
:10217000C2EF10F0475008E14628D8A0C2EF10F097
:10218000C4EF10F0CFEF10F0000E476E4668000E5F
:10219000356E000E366E000E376E000E386E47BE7E
:1021A000DCEF10F0475006E14604D8B0DAEF10F04B
:1021B000DCEF10F0EAEF10F0000E476E000E466EF6
:1021C000000E356E000E366E000E376E000E386E45
:1021D000000E456E46C04CF04CA0F1EF10F0F3EF4E
:1021E00010F0F6EF10F0378EF7EF10F0379ED89022
:1021F0004C30386EADEF0FF012000600FACF0AF047
:10220000FBCF0BF0D9CF0CF0DACF0DF0F2A80BEF2B
:1022100011F00DEF11F016EF11F0F2A212EF11F024
:1022200014EF11F016EF11F018EC22F0F0A61BEFEE
:1022300011F01DEF11F026EF11F0F0A022EF11F0D8
:1022400024EF11F026EF11F016EC22F0F0A82BEF9E
:1022500011F02DEF11F036EF11F0F0A232EF11F086
:1022600034EF11F036EF11F014EC22F0F2A63BEF50
:1022700011F03DEF11F058EF11F0F2A042EF11F024
:1022800044EF11F058EF11F081A849EF11F04BEF36
:1022900011F058EF11F07104D8A451EF11F053EF81
:1022A00011F058EF11F0000E716E000EDBEC21F012
:1022B000F2A65DEF11F05FEF11F07AEF11F0F2A0EE
:1022C00064EF11F066EF11F07AEF11F081B86BEF67
:1022D00011F06DEF11F07AEF11F07150D8A473EF97
:1022E00011F075EF11F07AEF11F0010E716E010E21
:1022F000DBEC21F0F2A67FEF11F081EF11F09CEF03
:1023000011F0F2A086EF11F088EF11F09CEF11F0C0
:1023100081AA8DEF11F08FEF11F09CEF11F0700496
:10232000D8A495EF11F097EF11F09CEF11F0000E8B
:10233000706E000ECEEC21F0F2A6A1EF11F0A3EF2B
:1023400011F0BEEF11F0F2A0A8EF11F0AAEF11F01A
:10235000BEEF11F081BAAFEF11F0B1EF11F0BEEFA7
:1023600011F07050D8A4B7EF11F0B9EF11F0BEEF33
:1023700011F0010E706E010ECEEC21F0F2A6C3EF4B
:1023800011F0C5EF11F0E0EF11F0F2A0CAEF11F07B
:10239000CCEF11F0E0EF11F081ACD1EF11F0D3EF01
:1023A00011F0E0EF11F06F04D8A4D9EF11F0DBEFDA
:1023B00011F0E0EF11F0000E6F6E000EC1EC21F095
:1023C000F2A6E5EF11F0E7EF11F002EF12F0F2A044
:1023D000ECEF11F0EEEF11F002EF12F081BCF3EF31
:1023E00011F0F5EF11F002EF12F06F50D8A4FBEFEF
:1023F00011F0FDEF11F002EF12F0010E6F6E010E01
:10240000C1EC21F0F2A607EF12F009EF12F024EF71
:1024100012F0F2A00EEF12F010EF12F024EF12F013
:1024200081AE15EF12F017EF12F024EF12F06E04E8
:10243000D8A41DEF12F01FEF12F024EF12F0000EDF
:102440006E6E000EB4EC21F0F2A629EF12F02BEF25
:1024500012F046EF12F0F2A030EF12F032EF12F06D
:1024600046EF12F081BE37EF12F039EF12F046EF6F
:1024700012F06E50D8A43FEF12F041EF12F046EF89
:1024800012F0010E6E6E010EB4EC21F09DAC4BEF1C
:1024900012F04DEF12F056EF12F09EAC52EF12F028
:1024A00054EF12F056EF12F01CEC22F0F2AA5BEFA0
:1024B00012F05DEF12F066EF12F0F2A462EF12F08C
:1024C00064EF12F066EF12F012EC22F09DA06BEFB9
:1024D00012F06DEF12F076EF12F09EA072EF12F094
:1024E00074EF12F076EF12F014EC21F09DA27BEF66
:1024F00012F07DEF12F086EF12F09EA282EF12F042
:1025000084EF12F086EF12F008EC22F0A0A28BEF1D
:1025100012F08DEF12F096EF12F0A1A292EF12F0EE
:1025200094EF12F096EF12F002EC22F09DA49BEFD4
:1025300012F09DEF12F0A6EF12F09EA4A2EF12F09F
:10254000A4EF12F0A6EF12F04BEC21F0A0A0ABEF3D
:1025500012F0ADEF12F0B6EF12F0A1A0B2EF12F050
:10256000B4EF12F0B6EF12F01AEC22F00DC0DAFF61
:102570000CC0D9FF0BC0FBFF0AC0FAFF729211001A
:102580002BC043F02CC044F02DC045F02EC046F0C7
:102590002FC047F030C048F031C049F032C04AF097
:1025A0004ABED5EF12F0D8EF12F0010ED9EF12F0BB
:1025B000000E416E426A41504210D8B4E2EF12F070
:1025C000E4EF12F0F4EF12F04A1E491E481E471EB7
:1025D000461E451E441E436C000E442245224622E0
:1025E0004722482249224A2200018DBFFAEF12F009
:1025F000FCEF12F0FDEF12F065928DBF0AEF13F0C1
:102600008D5106E18C05D8B008EF13F00AEF13F0F6
:1026100010EF13F0000E3E6E010E3D6E14EF13F03E
:102620008CC03DF08DC03EF08AC03FF08BC040F0C2
:1026300041504210D8A41FEF13F021EF13F028EF00
:1026400013F065A426EF13F028EF13F02BEF13F02F
:102650003F06D8A04006000E4C6E1F0E4B6E000EBB
:1026600001014D6FB0EF13F04B06D8A04C062E0EB3
:102670004B24D96E010E4C20DA6E43C00EF044C0DC
:102680000FF045C010F046C011F047C012F048C02E
:1026900013F049C014F04AC015F00A0E166E000E71
:1026A000176E000E186E000E196E000E1A6E000ED8
:1026B0001B6E000E1C6E000E1D6E2FEC18F00EC06F
:1026C00033F00FC034F010C035F011C036F012C036
:1026D00037F013C038F014C039F015C03AF033C0E9
:1026E00020F035C021F0F4EC20F02050300FDF6EE8
:1026F0003D06D8A03E063F06D8A0400643C00EF0D7
:1027000044C00FF045C010F046C011F047C012F0B1
:1027100048C013F049C014F04AC015F00A0E166EF6
:10272000000E176E000E186E000E196E000E1A6E57
:10273000000E1B6E000E1C6E000E1D6EB0EC16F02F
:102740000EC043F00FC044F010C045F011C046F079
:1027500012C047F013C048F014C049F015C04AF049
:102760004CBEBBEF13F04C5008E14B04D8A0BBEFBC
:1027700013F0BDEF13F0EDEF13F04350441045108C
:1027800046104710481049104A10D8A4CAEF13F059
:10279000CCEF13F034EF13F03EBED9EF13F03E5000
:1027A00006E13D04D8B0D7EF13F0D9EF13F034EFC2
:1027B00013F040BEE4EF13F0405008E13F04D8A00E
:1027C000E4EF13F0E6EF13F0EDEF13F065B2EBEF8B
:1027D00013F0EDEF13F034EF13F041504210D8A492
:1027E000F4EF13F0F6EF13F0FDEF13F065A4FBEF39
:1027F00013F0FDEF13F01BEF14F04B06D8A04C06BE
:1028000041504210D8A407EF14F009EF14F00FEF75
:1028100014F0000E3C6E2B0E3B6E13EF14F0000E06
:102820003C6E2D0E3B6E2E0E4B24D96E010E4C20AD
:10283000DA6E3BC0DFFF29C01EF02AC01FF02E0E4B
:102840004B24206E010E4C20216E3FC022F040C070
:1028500023F096EC1BF01EC029F01FC02AF01200D6
:102860004FC0D9FF50C0DAFFDECFF6FFDDCFF7FF54
:10287000F86A0800F550250AD8A441EF14F043EF98
:1028800014F0F2EF14F04FC0D9FF50C0DAFFDE2A87
:10289000000EDD22000E00018B6F000E8A6F8AC0D1
:1028A00065F08BC066F08C698D694FC0D9FF50C050
:1028B000DAFFDECFF6FFDDCFF7FFF86A0800F5504C
:1028C000640AD8B466EF14F068EF14F07BEF14F0EC
:1028D0004FC0D9FF50C0DAFFDECFF6FFDDCFF7FFE4
:1028E000F86A0800F550690AD8A479EF14F07BEF74
:1028F00014F0BBEF14F04FC0D9FF50C0DAFFDE2A4E
:10290000000EDD2251C0D9FF52C0DAFFDFCF53F0F5
:10291000020EDE26DFCF54F0000EDD2253C0D9FFB9
:1029200054C0DAFFDECF55F0DDCF56F0000E56BEB4
:10293000FF0E576E586E596E5A6E5B6E5C6E4DC0D0
:1029400029F04EC02AF055C02BF056C02CF057C0CD
:102950002DF058C02EF059C02FF05AC030F05BC097
:1029600031F05CC032F0C0EC12F029C04DF02AC04A
:102970004EF00EEF15F04FC0D9FF50C0DAFFDECF9A
:10298000F6FFDDCFF7FFF86A0800F550250AD8A456
:10299000CCEF14F0CEEF14F0E5EF14F04FC0D9FFF8
:1029A00050C0DAFFDE2A000EDD22000E0F6E250E6B
:1029B0000E6E4DC010F04EC011F031EC1BF0000E49
:1029C0004E6E010E4D6E0EEF15F04FC0D9FF50C088
:1029D000DAFFDE2A000EDD22000E4E6E000E4D6E76
:1029E0000EEF15F04FC0D9FF50C0DAFFDECFF6FF73
:1029F000DDCFF7FFF86A0800F5500E6E0F6A4DC084
:102A000010F04EC011F031EC1BF04FC0D9FF50C098
:102A1000DAFFDE2A000EDD22DFEF14F01200166E60
:102A20001650D8B416EF15F018EF15F03AEF15F070
:102A300011BE1FEF15F01DEF15F03AEF15F00EC0A7
:102A400012F00FC013F010C014F011C015F0121ED8
:102A5000131E141E151E122A000E132214221522F4
:102A600012C018F013C019F014C01AF015C01BF0F2
:102A700042EF15F00EC018F00FC019F010C01AF098
:102A800011C01BF00E500F1010101110D8A44BEFF6
:102A900015F04DEF15F057EF15F0000E0E6E000E0D
:102AA0000F6E000E106E000E116EE8EF15F0960E10
:102AB000176E61EF15F0172AD8901B321A321932AF
:102AC0001832000E1814126E000E1914136E000E38
:102AD0001A14146EFE0E1B14156E125013101410DF
:102AE0001510D8A476EF15F078EF15F05BEF15F020
:102AF00086EF15F0172A010E1826000E19221A2249
:102B00001B22D8901B321A3219321832000E1814B8
:102B1000126E000E1914136E000E1A14146EFF0EAE
:102B20001B14156E1250131014101510D8A49BEF1F
:102B300015F09DEF15F07AEF15F0A5EF15F01706DB
:102B4000D890183619361A361B361ABEAAEF15F069
:102B5000ACEF15F0B4EF15F0020E1760B2EF15F000
:102B6000B4EF15F09FEF15F017B0B9EF15F0BBEF0C
:102B700015F0BCEF15F01A9ED890173217C012F05E
:102B8000136A146A156A12C015F0146A136A126A7D
:102B9000125018121350191214501A1215501B12F9
:102BA0001650D8B4D6EF15F0D8EF15F0E0EF15F0C9
:102BB00011BEDFEF15F0DDEF15F0E0EF15F01B8E25
:102BC00018C00EF019C00FF01AC010F01BC011F0A1
:102BD00012001A0E216E010E226E1DEC1AF00A0E62
:102BE0000001EB6F010EEC6F10EC08F0E60E0E6EBC
:102BF000000E0F6EE1EC18F0D90E126E000E136E7F
:102C000056EC1CF0B19CB196000E0101566F000EFF
:102C1000576F000E586F000E596F1A0E216E010E7D
:102C2000226E110E236E100E246E64EC1DF01A0E2F
:102C3000186E010E196E3D0E1A6EB2EC1CF0020EEB
:102C40000001B819D8A427EF16F029EF16F097EF76
:102C500016F0945101014E6F0001955101014F6F23
:102C6000506B516B4FC151F14EC150F14F6B4E6BD8
:102C70006C504E250001C16F6D5001014F210001C4
:102C8000C26F000E010150210001C36F000E01014F
:102C900051210001C46F000E396E240E3A6E740E7D
:102CA0003B6E490E3C6EC1C00EF0C2C00FF0C3C0F7
:102CB00010F0C4C011F0000E0FEC15F00EC035F08E
:102CC0000FC036F010C037F011C038F030EC0FF004
:102CD00035C052F136C053F137C054F138C055F108
:102CE00052C139F053C13AF054C13BF055C13CF0E8
:102CF000000E356E000E366E800E376E3F0E386E4B
:102D000030EC0FF035C05EF036C05FF037C060F0D9
:102D100038C061F0ADEC1AF05EC084F05FC085F0A1
:102D200060C086F061C087F0000E0001B86F560EDB
:102D3000FA6F010EFB6F845100EC20F01A0E286E22
:102D4000010E296E010E2A6E0B0E2B6E560E2C6E86
:102D5000010E2D6EA9EC1FF01FEF16F007EF00F02B
:102D6000000E1F6E1DBEB9EF16F0B7EF16F0CBEFD9
:102D700016F01D1E1C1E1B1E1A1E191E181E171EC5
:102D8000166C000E1722182219221A221B221C224E
:102D90001D22010E1F6E15BED2EF16F0D0EF16F0F9
:102DA000E4EF16F0151E141E131E121E111E101E27
:102DB0000F1E0E6C000E0F2210221122122213225F
:102DC00014221522010E1F1A20EE20F0070EDE6AD3
:102DD000E806FDE216501710181019101A101B10F3
:102DE0001C101D10D8B4F7EF16F0F9EF16F04BEFEA
:102DF00017F0010E1E6E07EF17F0D8901636173633
:102E0000183619361A361B361C361D361E2A1DAECC
:102E10000CEF17F00EEF17F0FDEF16F0D8902036FC
:102E200021362236233624362536263627361650C6
:102E30000E5C17500F5818501058195011581A504E
:102E400012581B5013581C5014581D501558D8A018
:102E50002CEF17F02EEF17F03FEF17F016500E5E25
:102E600017500F5A1850105A1950115A1A50125A16
:102E70001B50135A1C50145A1D50155A2080D890BC
:102E80001D321C321B321A321932183217321632E6
:102E90001E2E0EEF17F01F50D8B451EF17F053EF5E
:102EA00017F063EF17F0271E261E251E241E231E73
:102EB000221E211E206C000E2122222223222422E7
:102EC00025222622272220C00EF021C00FF022C08A
:102ED00010F023C011F024C012F025C013F026C05A
:102EE00014F027C015F012000EC018F00FC019F032
:102EF00012501310D8A47FEF17F081EF17F083EF73
:102F000017F02EEF18F018C0D9FF19C0DAFF10C063
:102F1000DFFF12501824146E13501920156EFF0E87
:102F20001424D96EFF0E1520DA6E10C0DFFF135087
:102F300007E1030E125CD8B0A0EF17F0A2EF17F074
:102F4000A4EF17F02EEF18F020EE01F01850D9265C
:102F50001950DA2210C0DFFF20EE02F01850D926F7
:102F60001950DA2210C0DFFF12501824146E1350CB
:102F70001920156EFE0E1424D96EFF0E1520DA6E80
:102F800010C0DFFF12501824146E13501920156E54
:102F9000FD0E1424D96EFF0E1520DA6E10C0DFFF6F
:102FA000135007E1070E125CD8B0D9EF17F0DBEF32
:102FB00017F0DDEF17F02EEF18F020EE03F01850A9
:102FC000D9261950DA2210C0DFFF12501824146ECF
:102FD00013501920156EFC0E1424D96EFF0E152007
:102FE000DA6E10C0DFFF135007E1090E125CD8B093
:102FF000FCEF17F0FEEF17F000EF18F02EEF18F0CF
:1030000018C014F019C015F0141E151E144A152A04
:10301000030E1414166E176A16501826175019222C
:103020001650125E1750135AFC0E1216FF0E13168E
:1030300025EF18F018C0D9FF19C0DAFF10C0DFFF64
:103040001206D8A01306184A192A12501310D8A431
:103050002CEF18F02EEF18F01AEF18F01200000EF7
:103060001F6E15BE38EF18F036EF18F04AEF18F063
:10307000151E141E131E121E111E101E0F1E0E6C86
:10308000000E0F22102211221222132214221522C6
:10309000010E1F6E1DBE51EF18F04FEF18F061EFDB
:1030A00018F01D1E1C1E1B1E1A1E191E181E171E90
:1030B000166C000E1722182219221A221B221C221B
:1030C0001D2216501710181019101A101B101C1062
:1030D0001D10D8B46EEF18F070EF18F0B8EF18F0BC
:1030E000010E1E6E7EEF18F0D89016361736183681
:1030F00019361A361B361C361D361E2A1DAE83EFB6
:1031000018F085EF18F074EF18F016500E5C175099
:103110000F5818501058195011581A5012581B5067
:1031200013581C5014581D501558D8A09AEF18F079
:103130009CEF18F0ACEF18F016500E5E17500F5AB7
:103140001850105A1950115A1A50125A1B50135A2B
:103150001C50145A1D50155AD8901D321C321B3267
:103160001A3219321832173216321E2E85EF18F025
:103170001F50D8B4BEEF18F0C0EF18F0D0EF18F021
:10318000151E141E131E121E111E101E0F1E0E6C75
:10319000000E0F22102211221222132214221522B5
:1031A0000EC00EF00FC00FF010C010F011C011F0E3
:1031B00012C012F013C013F014C014F015C015F0B3
:1031C0001200010E166E0E500F10D8B4EAEF18F070
:1031D000ECEF18F05EEF19F00EC0D9FF0FC0DAFF68
:1031E000DF30E832E832070B106E080E1060FBEF9C
:1031F00018F0FDEF18F05EEF19F062EF19F00EC055
:10320000D9FF0FC0DAFFDF30E832E832070B106E6B
:10321000010E116E102A0FEF19F0D8901136102EF2
:103220000DEF19F01150FF0A126E0EC0D9FF0FC03A
:10323000DAFFDF50070B136E1350020DCF0EF3248D
:10324000D96E000EF420DA6EDECF14F0DDCF15F06B
:1032500014C0D9FF15C0DAFF1250DF1683EF19F042
:103260000EC0D9FF0FC0DAFFDF30E832E832070BBB
:10327000106E010E116E102A40EF19F0D890113621
:10328000102E3EEF19F00EC0D9FF0FC0DAFFDF504D
:10329000070B126E1250020DCF0EF324D96E000EE2
:1032A000F420DA6EDECF13F0DDCF14F013C0D9FFB7
:1032B00014C0DAFF1150DF1283EF19F0000E166E02
:1032C00083EF19F00EC0D9FF0FC0DAFFDFBC6BEF40
:1032D00019F06EEF19F0010E6FEF19F0000E106E7D
:1032E000116A1150000AD8B478EF19F05EEF19F0A6
:1032F0001050000AD8B4FFEF18F0010AD8B430EF2C
:1033000019F05EEF19F016501200010E176E0E50F4
:103310000F10D8B48EEF19F090EF19F002EF1AF0F9
:103320000EC0D9FF0FC0DAFFDF30E832E832070BFA
:10333000116E080E11609FEF19F0A1EF19F002EF66
:103340001AF006EF1AF00EC0D9FF0FC0DAFFDF3017
:10335000E832E832070B116E010E126E112AB3EF3C
:1033600019F0D8901236112EB1EF19F00EC0D9FF16
:103370000FC0DAFFDF50070B136E1350020DC50E9E
:10338000F324D96E000EF420DA6EDECF14F0DDCF18
:1033900015F014C0D9FF15C0DAFF1250DF121BEF71
:1033A0001AF00EC0D9FF0FC0DAFFDF30E832E83282
:1033B000070B116E010E126E112AE1EF19F0D89071
:1033C0001236112EDFEF19F01250FF0A136E0EC0E5
:1033D000D9FF0FC0DAFFDF50070B146E1450020D37
:1033E000C50EF324D96E000EF420DA6EDECF15F090
:1033F000DDCF16F015C0D9FF16C0DAFF1350DF1667
:103400001BEF1AF0000E176E1BEF1AF01050116E22
:10341000126A1250000AD8B410EF1AF002EF1AF034
:103420001150000AD8B4D1EF19F0010AD8B4A3EFB3
:1034300019F002EF1AF017501200000E256E2150FD
:103440002210D8B426EF1AF028EF1AF0ACEF1AF0D9
:10345000010E2124186E000E2220196E11EC1FF0AF
:10346000266E21C018F022C019F011EC1FF0266E54
:10347000000E256E25502124236E000E2220246E7E
:10348000020E2324186E000E2420196E11EC1FF07A
:10349000252A070E25644FEF1AF051EF1AF03AEF84
:1034A0001AF0340E236EF20EE82EFED7232EFCD730
:1034B00021C018F022C019F0380E1A6E0BEC1DF066
:1034C0000D0E236EFC0EE82EFED7232EFCD721C056
:1034D00018F022C019F0380E1A6E0BEC1DF0640EB5
:1034E000E82EFED721C018F022C019F0380E1A6E4F
:1034F0000BEC1DF021C018F022C019F0010E1A6E5D
:103500000BEC1DF021C018F022C019F0020E1A6E4B
:103510000BEC1DF021C018F022C019F0060E1A6E37
:103520000BEC1DF021C018F022C019F00C0E1A6E21
:103530000BEC1DF021C018F022C019F0380E1A6EE5
:103540000BEC1DF021C018F022C019F0800E1A6E8D
:103550000BEC1DF0ACEF1AF0120060346134636EB6
:103560006350D8A4B6EF1AF0B8EF1AF0C2EF1AF011
:10357000000E5E6E000E5F6E000E606E000E616EDD
:1035800030EF1BF05EC0E7F05FC0E8F060C0E9F02C
:1035900061C0EAF0200ED3EF1AF00001D890EA33B0
:1035A000E933E833E733E82ECDEF1AF0E751626EE6
:1035B000608EFF0E5E16FF0E5F16FF0E6016000E89
:1035C0006116960E635E63BEEAEF1AF0E8EF1AF03A
:1035D00000EF1BF06350800A970FD8B0F2EF1AF09B
:1035E000F4EF1AF0F6EF1AF0B8EF1AF0D890613253
:1035F00060325F325E32633EF6EF1AF018EF1BF076
:103600001F0E636406EF1BF008EF1BF010EF1BF0BA
:10361000B8EF1AF0D8905E365F36603661366306D2
:103620006350D8A416EF1BF018EF1BF00AEF1BF045
:103630006250D8B41EEF1BF020EF1BF028EF1BF0F8
:10364000611E601E5F1E5E6C000E5F2260226122A2
:103650005EC05EF05FC05FF060C060F061C061F0AE
:10366000120010501110D8B438EF1BF03AEF1BF0D5
:1036700043EF1BF010501110D8A441EF1BF043EFA3
:103680001BF048EF1BF00E501EEC22F095EF1BF0E4
:1036900020EE09F01050D9261150DA22DE50DE104B
:1036A000D8B455EF1BF057EF1BF072EF1BF020EE74
:1036B00009F01050D9261150DA2210EE03F0105004
:1036C000E1261150E222DE50E65CE650800A166EDA
:1036D000DE50800A1658D8B070EF1BF072EF1BF066
:1036E00095EF1BF020EE03F01050D9261150DA228E
:1036F000DECF12F0DDCF13F010C0D9FF11C0DAFF1A
:10370000DECF14F0DDCF15F012501424D96E135013
:103710001520DA6E0EC0DFFF20EE03F01050D92620
:103720001150DA22DE2A000EDD22120065A09BEF86
:103730001BF09DEF1BF0A7EF1BF020C017F021C07E
:1037400018F01EC019F01FC01AF0D2EC20F023BEF2
:10375000ACEF1BF0AEEF1BF0B4EF1BF022C027F074
:1037600023C028F0B8EF1BF0000E286E000E276E65
:10377000000E266E000E256ECAEF1BF0000E0F6EB7
:10378000200E0E6E1EC010F01FC011F031EC1BF0A9
:10379000254A262A2750255C2650800A246E285068
:1037A000800A2458D8A0D7EF1BF0D9EF1BF0BEEF4A
:1037B0001BF065B0DEEF1BF0E0EF1BF0EAEF1BF053
:1037C00020C017F021C018F01EC019F01FC01AF059
:1037D000D2EC20F020C00EF021C00FF030EC21F030
:1037E00027500E241E6E28500F201F6E12002150ED
:1037F0002210D8B4FEEF1BF000EF1CF033EF1CF0EA
:10380000240637EF1CF021C018F022C019F0245014
:10381000800F1A6E0BEC1DF0276E54EF1CF021C0C8
:1038200018F022C019F02450C00F1A6E0BEC1DF0D6
:10383000276E54EF1CF021C018F022C019F024505C
:10384000940F1A6E0BEC1DF0276E54EF1CF021C084
:1038500018F022C019F02450D40F1A6E0BEC1DF092
:10386000276E54EF1CF0000E276E54EF1CF023500F
:10387000256E266A2650000AD8B441EF1CF033EFBB
:103880001CF02550010AD8B403EF1CF0030AD8B489
:103890000FEF1CF0010AD8B41BEF1CF0070AD8B4D4
:1038A00027EF1CF033EF1CF02750120012501310BA
:1038B000D8B45DEF1CF05FEF1CF0B1EF1CF012C04C
:1038C0000EF013C00FF0A7EC21F012C00EF013C0E1
:1038D0000FF08EEC1EF012C00EF013C00FF02BECA8
:1038E00020F012C00EF013C00FF055EC20F012C003
:1038F0000EF013C00FF0FFEC1DF012C00EF013C05D
:103900000FF07FEC20F012C00EF013C00FF020EE8D
:1039100003F01250D9261350DA22DECF10F0DDCF9B
:1039200011F079EC1FF020EE03F01250D92613505D
:10393000DA22DECF69F0DDCF6AF012C00EF013C0DC
:103940000FF0D5EC1FF012C00EF013C00FF08BEC8F
:1039500021F012C00EF013C00FF09AEC21F0B1EF7D
:103960001CF01200010E1F6E18501910D8B4BBEFD6
:103970001CF0BDEF1CF007EF1DF018C00EF019C0D1
:103980000FF0010E106E85EC19F0000E206E205025
:1039900018241B6E000E19201C6E020E1B240E6EC6
:1039A000000E1C200F6E20C01DF01AC01EF01D2A34
:1039B000DCEF1CF0D8901E321D2EDAEF1CF01E50EA
:1039C000010B106E85EC19F0202A070E2064EBEF36
:1039D0001CF0EDEF1CF0C7EF1CF0010E18240E6E6A
:1039E000000E19200F6E010E106E85EC19F0030EFB
:1039F000E82EFED700F0010E18240E6E000E1920DE
:103A00000F6E000E106E85EC19F009EF1DF0000E20
:103A10001F6E1F501200010E1F6E18501910D8B4DF
:103A200014EF1DF016EF1DF060EF1DF018C00EF042
:103A300019C00FF0000E106E85EC19F0000E206E0C
:103A4000205018241B6E000E19201C6E020E1B2421
:103A50000E6E000E1C200F6E20C01DF01AC01EF04E
:103A60001D2A35EF1DF0D8901E321D2E33EF1DF0AC
:103A70001E50010B106E85EC19F0202A070E2064F1
:103A800044EF1DF046EF1DF020EF1DF0010E18244D
:103A90000E6E000E19200F6E010E106E85EC19F0DF
:103AA000030EE82EFED700F0010E18240E6E000E55
:103AB00019200F6E000E106E85EC19F062EF1DF0EC
:103AC000000E1F6E1F501200010E256E2150221095
:103AD000D8B46DEF1DF06FEF1DF0B0EF1DF0235067
:103AE0002410D8B476EF1DF078EF1DF0B0EF1DF084
:103AF00095EF1DF021C018F022C019F023C0F6FF89
:103B000024C0F7FF000EF86E0F0EF76403D0080014
:103B1000F55005D0F6CFE9FFF7CFEAFFEF501A6E68
:103B2000B2EC1CF0256E234A242A23C0F6FF24C0E1
:103B3000F7FF000EF86E0F0EF76403D00800F55083
:103B400005D0F6CFE9FFF7CFEAFFEF500009D8A480
:103B5000ACEF1DF0AEEF1DF07AEF1DF0B2EF1DF0EF
:103B6000000E256E2550120001500210D8B4BBEF94
:103B70001DF0BDEF1DF0FEEF1DF003500410D8B492
:103B8000C4EF1DF0C6EF1DF0FEEF1DF020EE06F0B5
:103B90000150D9260250DA22DF50D8A4D2EF1DF00E
:103BA000D4EF1DF0E2EF1DF0BECF06F0BFCF07F05F
:103BB00003C0D9FF04C0DAFF06C0DEFF07C0DDFF87
:103BC000FEEF1DF020EE06F00150D9260250DA2259
:103BD000DE04D8A4EEEF1DF0F0EF1DF0FEEF1DF0B7
:103BE000BBCF08F0BCCF09F003C0D9FF04C0DAFF97
:103BF00008C0DEFF09C0DDFFFEEF1DF012000E5011
:103C00000F10D8B406EF1EF008EF1EF01EEF1EF0E6
:103C100020EF1EF0CF0ECD1646EF1EF0CD50CF0B8D
:103C20001009CD6E46EF1EF0CD50CF0B2009CD6EA2
:103C300046EF1EF0300ECD1246EF1EF046EF1EF09E
:103C400020EE06F00E50D9260F50DA22DF30E8328F
:103C5000E832030B106E116A1150000AD8B433EF2A
:103C60001EF01EEF1EF01050000AD8B40AEF1EF02E
:103C7000010AD8B40EEF1EF0030AD8B414EF1EF0F8
:103C8000010AD8B41AEF1EF01EEF1EF01200C60E85
:103C9000F66E420EF76E000EF86E01EE00F010EEBA
:103CA0002EF00900F5CFEEFFE550E150FAE1F40EF9
:103CB000F66E420EF76E000EF86E00EEC5F010EED6
:103CC00022F00900F5CFEEFFE550E150FAE1200EB9
:103CD000F66E440EF76E000EF86E00EE6EF010EE0B
:103CE00004F00900F5CFEEFFE550E150FAE101EEF6
:103CF0002EF0200EEE6AE806FDE100EE80F0450EA3
:103D0000EE6AE806FDE100EE65F0090EEE6AE806EF
:103D1000FDE1729072920001E9EF15F00E500F1064
:103D2000D8B495EF1EF097EF1EF0D3EF1EF020EE03
:103D300005F00E50D9260F50DA22DF50D8A4A3EF99
:103D40001EF0A5EF1EF0B5EF1EF020EE06F00E50AF
:103D5000D9260F50DA22DFB0B0EF1EF0B2EF1EF01E
:103D6000B5EF1EF0CD92D3EF1EF020EE05F00E5011
:103D7000D9260F50DA22DE04D8A4C1EF1EF0C3EF1B
:103D80001EF0D3EF1EF020EE06F00E50D9260F5095
:103D9000DA22DFA0CEEF1EF0D0EF1EF0D3EF1EF040
:103DA000CD82D3EF1EF012000001B82B6B50D8A4C7
:103DB000DCEF1EF0DEEF1EF0EEEF1EF0000ECF6E19
:103DC000000ECE6E000E936F000E926FD90E016E34
:103DD000000E026EE8EC21F00EEF1FF06B04D8A489
:103DE000F4EF1EF0F6EF1EF00EEF1FF096C094F009
:103DF00097C095F0000E976F000E966F0A0E016E39
:103E0000010E026E6C0E036E000E046EB4EC1DF01B
:103E1000D90E016E000E026EF5EC21F0010E6B1A48
:103E2000120018501910D8B418EF1FF01AEF1FF035
:103E300043EF1FF018C0D9FF19C0DAFFDF30E832B6
:103E4000E832070B1A6E080E1A6029EF1FF02BEFED
:103E50001FF043EF1FF018C00EF019C00FF0E1EC97
:103E600018F01B6E18C00EF019C00FF018C0D9FF63
:103E700019C0DAFF000EDFBE010E106E85EC19F0DE
:103E80001B6E45EF1FF0000E1B6E1B5012005FC033
:103E900063F060C064F0000E0001896F000E886F4F
:103EA00065EF1FF05DC04DF05EC04EF0630E4F6ECB
:103EB000000E506E61C051F062C052F030EC14F050
:103EC0004D50000188274E50892363C0F6FF64C01F
:103ED000F7FFF86A0800F5500009D8A472EF1FF048
:103EE00074EF1FF052EF1FF088C05DF089C05EF0E4
:103EF00012000E500F10D8B480EF1FF082EF1FF0A9
:103F0000A8EF1FF020EE06F00E50D9260F50DA224F
:103F1000DFAA8DEF1FF08FEF1FF095EF1FF010C09D
:103F2000CEFF11C0CFFFA8EF1FF020EE06F00E501D
:103F3000D9260F50DA22DFBAA0EF1FF0A2EF1FF050
:103F4000A8EF1FF01150CF6E10C0CEFFA8EF1FF0EA
:103F5000120028502910D8B4B0EF1FF0B2EF1FF0B4
:103F6000D4EF1FF02CC0D9FF2DC0DAFFDF50D8B43A
:103F7000BCEF1FF0BEEF1FF0D4EF1FF028C021F000
:103F800029C022F02AC023F02BC024F0F7EC1BF04C
:103F900028C021F029C022F02CC023F02DC024F02D
:103FA00064EC1DF0D4EF1FF012000E500F10D8B4C7
:103FB000DCEF1FF0DEEF1FF0FFEF1FF000019C5160
:103FC0009D11D8A4E6EF1FF0E8EF1FF0FFEF1FF000
:103FD0000EC0D9FF0FC0DAFFDE50DE10D8B4F3EF09
:103FE0001FF0F5EF1FF0FFEF1FF00EC0D9FF0FC05D
:103FF000DAFFDECF9CF0DDCF9DF0FFEF1FF0120067
:104000000001FC6F0001FA51FB11D8B40AEF20F057
:104010000CEF20F02AEF20F0FAC00EF0FBC00FF0FA
:10402000000E116E000E106E000E136E040E126E56
:1040300074EC17F0FAC0E7F0FBC0E8F01B0E0001CB
:10404000E96F100EEA6FFCC0EBF0EC6BA9EC20F00E
:104050002AEF20F012000E500F10D8B432EF20F0EB
:1040600034EF20F054EF20F020EE06F00E50D92669
:104070000F50DA22DFB23FEF20F041EF20F044EFA3
:1040800020F0CD9454EF20F020EE06F00E50D9260B
:104090000F50DA22DFA24FEF20F051EF20F054EF63
:1040A00020F0CD8454EF20F012000E500F10D8B441
:1040B0005CEF20F05EEF20F07EEF20F020EE06F0C7
:1040C0000E50D9260F50DA22DFAA69EF20F06BEFED
:1040D00020F06EEF20F0CD8E7EEF20F020EE06F087
:1040E0000E50D9260F50DA22DFBA79EF20F07BEF9D
:1040F00020F07EEF20F0CD9E7EEF20F012000E50DB
:104100000F10D8B486EF20F088EF20F0A8EF20F051
:1041100020EE06F00E50D9260F50DA22DFA493EFDE
:1041200020F095EF20F098EF20F0CD86A8EF20F05A
:1041300020EE06F00E50D9260F50DA22DFB4A3EF9E
:1041400020F0A5EF20F0A8EF20F0CD96A8EF20F00A
:104150001200EB0E0001ED6F000EEE6FE7C0EFF006
:10416000E8C0F0F0000EF36F000EF26F000EF96F72
:10417000000EF86FEF0E5D6E000E5E6EE9C05FF030
:10418000EAC060F0ED0E616E000E626E47EC1FF04B
:104190000001F251E725D96EF351E821DA6E000EE5
:1041A000DF6E1200000E1D6E000E1C6EE3EF20F09D
:1041B0001BC00EF00F6A19C010F01AC011F031ECDC
:1041C0001BF01C4A1D2A1C501724D96E1D501820A4
:1041D000DA6EDF501B6E1B50D8A4F1EF20F0F3EF26
:1041E00020F0D8EF20F0120021BE01EF21F0215085
:1041F00006E12004D8B0FFEF20F001EF21F00FEF2F
:1042000021F020C022F021C023F0221E231E224ACA
:10421000232A22C020F023C021F013EF21F020C078
:1042200020F021C021F012009E906A50CF6E69C02C
:10423000CEFF00019C519D11D8B421EF21F023EF56
:1042400021F02FEF21F002D82FEF21F00500FA6EB8
:104250009C51FD6E9D51FE6EFF6AFA5012001200D5
:104260000EC010F00FC011F038EF21F00E4A0F2AE7
:104270000EC0D9FF0FC0DAFFDF50D8A442EF21F003
:1042800044EF21F036EF21F010500E5C0E6E11500D
:104290000F580F6E12009E94000190519111D8B4E6
:1042A00054EF21F056EF21F062EF21F002D862EFD7
:1042B00021F00500FA6E9051FD6E9151FE6EFF6A7D
:1042C000FA5012001200800F810F820F830F840FAB
:1042D000A83D0000010000010500000000000000F2
:1042E000030B0109111921293139323A030B131B30
:1042F000232B333B890F8A0F8B0F8C0F8D0F920F5F
:10430000930F940F950F960F1844010000002002A0
:104310000A121A222A520E500F10D8B492EF21F02E
:1043200094EF21F099EF21F09D80F28EF28C99EFBD
:1043300021F012000E500F10D8B4A1EF21F0A3EF1E
:1043400021F0A6EF21F0CD80A6EF21F012000E5053
:104350000F10D8B4AEEF21F0B0EF21F0B3EF21F0A1
:10436000CD90B3EF21F01200016EF2900150D8A46D
:10437000BCEF21F0BEEF21F0C0EF21F0C0EF21F043
:104380001200016EF2900150D8A4C9EF21F0CBEFDA
:1043900021F0CDEF21F0CDEF21F01200016EF2906F
:1043A0000150D8A4D6EF21F0D8EF21F0DAEF21F0B8
:1043B000DAEF21F01200016EF2900150D8A4E3EF81
:1043C00021F0E5EF21F0E7EF21F0E7EF21F0120017
:1043D00001500210D8B4EFEF21F0F1EF21F0F4EF2B
:1043E00021F0CD80F4EF21F0120001500210D8B47A
:1043F000FCEF21F0FEEF21F001EF22F0CD9001EF74
:1044000022F01200A1926850B36E67C0B2FF120092
:104410009E92B9C0CCFF12000001964B972B120060
:1044200001010101F2941200F0921200F0901200CA
:0E443000F2921200A19012009E9C1200120047
:020000040020DA
:08000000FFFFFFFFFFFFFFFF00
:020000040030CA
:0E000000FF02091EFF8181FF0FC00FE00F40BD
:00000001FF
