:0400000007EF00F016
:0A00080073820BED08F004EF0BF01B
:10100000003738392F3435362A3132332D23303DED
:051010002B2569000022
:101016000600F2A811EF08F013EF08F01CEF08F035
:10102600F2A218EF08F01AEF08F01CEF08F08FECA8
:101036000BF0F0A621EF08F023EF08F02CEF08F0F4
:10104600F0A028EF08F02AEF08F02CEF08F08DEC5E
:101056000BF0F0A831EF08F033EF08F03CEF08F0A2
:10106600F0A238EF08F03AEF08F03CEF08F08BEC0E
:101076000BF0F2A641EF08F043EF08F05EEF08F040
:10108600F2A048EF08F04AEF08F05EEF08F081A8FA
:101096004FEF08F051EF08F05EEF08F02204D8A4F5
:1010A60057EF08F059EF08F05EEF08F0000E226ED9
:1010B600000E61EC0BF0F2A663EF08F065EF08F0A6
:1010C60080EF08F0F2A06AEF08F06CEF08F080EF0E
:1010D60008F081B871EF08F073EF08F080EF08F0C0
:1010E6002250D8A479EF08F07BEF08F080EF08F0E3
:1010F600010E226E010E61EC0BF0F2A685EF08F0F0
:1011060087EF08F0A2EF08F0F2A08CEF08F08EEF60
:1011160008F0A2EF08F081AA93EF08F095EF08F027
:10112600A2EF08F02104D8A49BEF08F09DEF08F089
:10113600A2EF08F0000E216E000E54EC0BF0F2A6A2
:10114600A7EF08F0A9EF08F0C4EF08F0F2A0AEEFA1
:1011560008F0B0EF08F0C4EF08F081BAB5EF08F078
:10116600B7EF08F0C4EF08F02150D8A4BDEF08F09F
:10117600BFEF08F0C4EF08F0010E216E010E54EC2B
:101186000BF0F2A6C9EF08F0CBEF08F0E6EF08F097
:10119600F2A0D0EF08F0D2EF08F0E6EF08F081AC4D
:1011A600D7EF08F0D9EF08F0E6EF08F02004D8A44E
:1011B600DFEF08F0E1EF08F0E6EF08F0000E206E32
:1011C600000E47EC0BF0F2A6EBEF08F0EDEF08F09F
:1011D60008EF09F0F2A0F2EF08F0F4EF08F008EFDC
:1011E60009F081BCF9EF08F0FBEF08F008EF09F011
:1011F6002050D8A401EF09F003EF09F008EF09F039
:10120600010E206E010E47EC0BF0F2A60DEF09F071
:101216000FEF09F02AEF09F0F2A014EF09F016EF2C
:1012260009F02AEF09F081AE1BEF09F01DEF09F076
:101236002AEF09F01F04D8A423EF09F025EF09F0DF
:101246002AEF09F0000E1F6E000E3AEC0BF0F2A624
:101256002FEF09F031EF09F04CEF09F0F2A036EF6D
:1012660009F038EF09F04CEF09F081BE3DEF09F0C7
:101276003FEF09F04CEF09F01F50D8A445EF09F0F5
:1012860047EF09F04CEF09F0010E1F6E010E3AEC24
:101296000BF09DAC51EF09F053EF09F05CEF09F04C
:1012A6009EAC58EF09F05AEF09F05CEF09F095ECA7
:1012B6000BF0F2AA61EF09F063EF09F06CEF09F0A9
:1012C600F2A468EF09F06AEF09F06CEF09F089EC17
:1012D6000BF09DA071EF09F073EF09F07CEF09F0B8
:1012E6009EA078EF09F07AEF09F07CEF09F07FEC29
:1012F6000BF09DA281EF09F083EF09F08CEF09F066
:101306009EA288EF09F08AEF09F08CEF09F085ECD0
:101316000BF0A0A291EF09F093EF09F09CEF09F012
:10132600A1A298EF09F09AEF09F09CEF09F079EC89
:101336000BF09DA4A1EF09F0A3EF09F0ACEF09F0C3
:101346009EA4A8EF09F0AAEF09F0ACEF09F093EC20
:101356000BF0A0A0B1EF09F0B3EF09F0BCEF09F074
:10136600A1A0B8EF09F0BAEF09F0BCEF09F091ECD3
:101376000BF09DA8C1EF09F0C3EF09F0CCEF09F01F
:101386009EA8C8EF09F0CAEF09F0CCEF09F097EC78
:101396000BF0739211006D506E10D8B4D5EF09F0B2
:1013A600D7EF09F0BBEF0AF020EE04F06D50D92616
:1013B6006E50DA22DE04D8A4E3EF09F0E5EF09F077
:1013C600E8EF09F0C68AF9EF09F020EE04F06D5057
:1013D600D9266E50DA22DF50D8A4F4EF09F0F6EFE2
:1013E60009F0F9EF09F0C69AF9EF09F0949A2CEF93
:1013F6000AF0F00EC6169496929A55EF0AF0C65069
:10140600F00B0109C66E9496929A55EF0AF0C650F3
:10141600F00B0209C66E9496929A55EF0AF0C650E2
:10142600F00B0309C66E9496929A55EF0AF0C650D1
:10143600F00B0409C66E9486928A55EF0AF0C650E0
:10144600F00B0509C66E9486928A55EF0AF055EFA1
:101456000AF06DC0D9FF6EC0DAFFDF506F6E706A9A
:101466007050000AD8B43AEF0AF02AEF0AF06F502B
:10147600000AD8B4FCEF09F0010AD8B402EF0AF06A
:10148600030AD8B40AEF0AF0010AD8B412EF0AF038
:10149600070AD8B41AEF0AF0010AD8B422EF0AF004
:1014A6002AEF0AF020EE01F06D50D9266E50DA22AE
:1014B600DF50D8A461EF0AF063EF0AF066EF0AF096
:1014C600C79C77EF0AF020EE01F06D50D9266E50DA
:1014D600DA22DE04D8A472EF0AF074EF0AF077EF8E
:1014E6000AF0C78C77EF0AF020EE02F06D50D9268D
:1014F6006E50DA22DF50D8A483EF0AF085EF0AF0A7
:1015060088EF0AF0C69899EF0AF020EE02F06D50C7
:10151600D9266E50DA22DE04D8A494EF0AF096EFAC
:101526000AF099EF0AF0C68899EF0AF020EE03F068
:101536006D50D9266E50DA22DF50D8A4A5EF0AF0F6
:10154600A7EF0AF0AAEF0AF0C79EBBEF0AF020EE5B
:1015560003F06D50D9266E50DA22DE04D8A4B6EF19
:101566000AF0B8EF0AF0BBEF0AF0C78EBBEF0AF03D
:101576001200330E6D6E000E6E6ECEEC09F0050E87
:101586001FEC0BF04D0E6EEC0BF00B0E726E260E72
:10159600716E5E0EE82EFED7712EFCD7722EFAD72C
:1015A600050E1FEC0BF0530E6EEC0BF00B0E726E6D
:1015B600260E716E5E0EE82EFED7712EFCD7722EA9
:1015C600FAD7C2EF0AF007EF00F0800F810F820F03
:1015D600830F840F890F8A0F8B0F8C0F8D0F920F3D
:1015E600930F940F950F960F01010101323A030BE9
:1015F600131B232B333B020A121A222A0200000174
:0116060001E2
:10160800D00EF66E150EF76E000EF86E00EE01F0B5
:1016180010EE37F00900F5CFEEFFE550E150FAE1A2
:1016280000EE38F0340EEE6AE806FDE1739073922E
:101638000001BCEF0AF06F6E080E6F6026EF0BF02A
:1016480028EF0BF039EF0BF06FC06DF0010E6E6EE6
:101658006D2A31EF0BF0D8906E366D2E2FEF0BF010
:101668006E50FF0A891639EF0BF012006C6EF2907B
:101678006C50D8A442EF0BF044EF0BF046EF0BF0A0
:1016880046EF0BF012006C6EF2906C50D8A44FEF3E
:101698000BF051EF0BF053EF0BF053EF0BF0120080
:1016A8006C6EF2906C50D8A45CEF0BF05EEF0BF010
:1016B80060EF0BF060EF0BF012006C6EF2906C5064
:1016C800D8A469EF0BF06BEF0BF06DEF0BF06DEF3B
:1016D8000BF012006D6E6DC0C9FF9EA676EF0BF081
:1016E80078EF0BF071EF0BF01200A1923950B36E46
:1016F80038C0B2FF12009E903F50CF6E3EC0CEFF62
:1017080012009E9264C0CCFF1200F2941200F09274
:101718001200F0901200F2921200A19012009E9412
:0817280012009E9C1200120049
:020000040020DA
:08000000FFFFFFFFFFFFFFFF00
:020000040030CA
:0E000000FF02091EFF8181FF0FC00FE00F40BD
:00000001FF
