:0400000007EF00F016
:0A00080072820BED08F00AEF0AF017
:10100000003738392F3435362A3132332D23303DED
:051010002B2569000022
:101016000600F2A811EF08F013EF08F01CEF08F035
:10102600F2A218EF08F01AEF08F01CEF08F096ECA1
:101036000AF0F0A621EF08F023EF08F02CEF08F0F5
:10104600F0A028EF08F02AEF08F02CEF08F094EC57
:101056000AF0F0A831EF08F033EF08F03CEF08F0A3
:10106600F0A238EF08F03AEF08F03CEF08F092EC07
:101076000AF0F2A641EF08F043EF08F05EEF08F041
:10108600F2A048EF08F04AEF08F05EEF08F081A8FA
:101096004FEF08F051EF08F05EEF08F02704D8A4F0
:1010A60057EF08F059EF08F05EEF08F0000E276ED4
:1010B600000E67EC0AF0F2A663EF08F065EF08F0A1
:1010C60080EF08F0F2A06AEF08F06CEF08F080EF0E
:1010D60008F081B871EF08F073EF08F080EF08F0C0
:1010E6002750D8A479EF08F07BEF08F080EF08F0DE
:1010F600010E276E010E67EC0AF0F2A685EF08F0E6
:1011060087EF08F0A2EF08F0F2A08CEF08F08EEF60
:1011160008F0A2EF08F081AA93EF08F095EF08F027
:10112600A2EF08F02604D8A49BEF08F09DEF08F084
:10113600A2EF08F0000E266E000E5AEC0AF0F2A698
:10114600A7EF08F0A9EF08F0C4EF08F0F2A0AEEFA1
:1011560008F0B0EF08F0C4EF08F081BAB5EF08F078
:10116600B7EF08F0C4EF08F02650D8A4BDEF08F09A
:10117600BFEF08F0C4EF08F0010E266E010E5AEC20
:101186000AF0F2A6C9EF08F0CBEF08F0E6EF08F098
:10119600F2A0D0EF08F0D2EF08F0E6EF08F081AC4D
:1011A600D7EF08F0D9EF08F0E6EF08F02504D8A449
:1011B600DFEF08F0E1EF08F0E6EF08F0000E256E2D
:1011C600000E4DEC0AF0F2A6EBEF08F0EDEF08F09A
:1011D60008EF09F0F2A0F2EF08F0F4EF08F008EFDC
:1011E60009F081BCF9EF08F0FBEF08F008EF09F011
:1011F6002550D8A401EF09F003EF09F008EF09F034
:10120600010E256E010E4DEC0AF0F2A60DEF09F067
:101216000FEF09F02AEF09F0F2A014EF09F016EF2C
:1012260009F02AEF09F081AE1BEF09F01DEF09F076
:101236002AEF09F02404D8A423EF09F025EF09F0DA
:101246002AEF09F0000E246E000E40EC0AF0F2A61A
:101256002FEF09F031EF09F04CEF09F0F2A036EF6D
:1012660009F038EF09F04CEF09F081BE3DEF09F0C7
:101276003FEF09F04CEF09F02450D8A445EF09F0F0
:1012860047EF09F04CEF09F0010E246E010E40EC19
:101296000AF09DAC51EF09F053EF09F05CEF09F04D
:1012A6009EAC58EF09F05AEF09F05CEF09F09CECA0
:1012B6000AF0F2AA61EF09F063EF09F06CEF09F0AA
:1012C600F2A468EF09F06AEF09F06CEF09F090EC10
:1012D6000AF09DA071EF09F073EF09F07CEF09F0B9
:1012E6009EA078EF09F07AEF09F07CEF09F086EC22
:1012F6000AF09DA281EF09F083EF09F08CEF09F067
:101306009EA288EF09F08AEF09F08CEF09F08CECC9
:101316000AF0A0A291EF09F093EF09F09CEF09F013
:10132600A1A298EF09F09AEF09F09CEF09F080EC82
:101336000AF09DA4A1EF09F0A3EF09F0ACEF09F0C4
:101346009EA4A8EF09F0AAEF09F0ACEF09F09AEC19
:101356000AF0A0A0B1EF09F0B3EF09F0BCEF09F075
:10136600A1A0B8EF09F0BAEF09F0BCEF09F098ECCC
:101376000AF09DA8C1EF09F0C3EF09F0CCEF09F020
:101386009EA8C8EF09F0CAEF09F0CCEF09F09EEC71
:101396000AF072921100C690C692C694C696C68A84
:1013A600C698C79CC79E949A9496929A050E25EC69
:1013B6000AF04D0E74EC0AF00B0E716E260E706E6E
:1013C6005E0EE82EFED7702EFCD7712EFAD7D9EF17
:1013D60009F007EF00F0800F810F820F830F840F53
:1013E600890F8A0F8B0F8C0F8D0F920F930F940F0F
:1013F600950F960F000000000101010101323A032A
:0D1406000B131B232B333B020A121A222A60
:10141400DC0EF66E130EF76E000EF86E00EE01F0A1
:1014240010EE37F00900F5CFEEFFE550E150FAE198
:1014340000EE38F0340EEE6AE806FDE17290729226
:101444000001CEEF09F06F6E080E6F602CEF0AF00A
:101454002EEF0AF03FEF0AF06FC06DF0010E6E6ED2
:101464006D2A37EF0AF0D8906E366D2E35EF0AF0FC
:101474006E50FF0A89163FEF0AF012006C6EF2906C
:101484006C50D8A448EF0AF04AEF0AF04CEF0AF087
:101494004CEF0AF012006C6EF2906C50D8A455EF29
:1014A4000AF057EF0AF059EF0AF059EF0AF0120068
:1014B4006C6EF2906C50D8A462EF0AF064EF0AF0FC
:1014C40066EF0AF066EF0AF012006C6EF2906C5050
:1014D400D8A46FEF0AF071EF0AF073EF0AF073EF1C
:1014E4000AF012006D6E6DC0C9FFC7A07CEF0AF050
:1014F4007EEF0AF077EF0AF0C9501200A19239503A
:10150400B36E38C0B2FF12009E903F50CF6E3EC003
:10151400CEFF12009E9264C0CCFF1200F29412001F
:10152400F0921200F0901200F2921200A1901200B8
:0A1534009E9412009E9C120012000B
:020000040020DA
:08000000FFFFFFFFFFFFFFFF00
:020000040030CA
:0E000000FF02091EFF8181FF0FC00FE00F40BD
:00000001FF
